{
  "contractName": "MockTimeSecuredLoan",
  "abi": [
    {
      "constant": false,
      "inputs": [],
      "name": "resume",
      "outputs": [],
      "payable": false,
      "stateMutability": "nonpayable",
      "type": "function",
      "signature": "0x046f7da2"
    },
    {
      "constant": false,
      "inputs": [],
      "name": "stop",
      "outputs": [],
      "payable": false,
      "stateMutability": "nonpayable",
      "type": "function",
      "signature": "0x07da68f5"
    },
    {
      "constant": true,
      "inputs": [],
      "name": "ownedAmount",
      "outputs": [
        {
          "name": "",
          "type": "uint256"
        }
      ],
      "payable": false,
      "stateMutability": "view",
      "type": "function",
      "signature": "0x07e54798"
    },
    {
      "constant": true,
      "inputs": [
        {
          "name": "idx",
          "type": "uint256"
        }
      ],
      "name": "lenderAddressAt",
      "outputs": [
        {
          "name": "",
          "type": "address"
        }
      ],
      "payable": false,
      "stateMutability": "view",
      "type": "function",
      "signature": "0x10919b4f"
    },
    {
      "constant": true,
      "inputs": [],
      "name": "status",
      "outputs": [
        {
          "name": "",
          "type": "uint8"
        }
      ],
      "payable": false,
      "stateMutability": "view",
      "type": "function",
      "signature": "0x200d2ed2"
    },
    {
      "constant": false,
      "inputs": [],
      "name": "repay",
      "outputs": [],
      "payable": true,
      "stateMutability": "payable",
      "type": "function",
      "signature": "0x402d8883"
    },
    {
      "constant": false,
      "inputs": [],
      "name": "refund",
      "outputs": [],
      "payable": true,
      "stateMutability": "payable",
      "type": "function",
      "signature": "0x590e1ae3"
    },
    {
      "constant": false,
      "inputs": [],
      "name": "renounceOwnership",
      "outputs": [],
      "payable": false,
      "stateMutability": "nonpayable",
      "type": "function",
      "signature": "0x715018a6"
    },
    {
      "constant": true,
      "inputs": [
        {
          "name": "addr",
          "type": "address"
        }
      ],
      "name": "lenderBy",
      "outputs": [
        {
          "name": "",
          "type": "address"
        },
        {
          "name": "",
          "type": "uint256"
        },
        {
          "name": "",
          "type": "uint256"
        }
      ],
      "payable": false,
      "stateMutability": "view",
      "type": "function",
      "signature": "0x751d1156"
    },
    {
      "constant": true,
      "inputs": [],
      "name": "borrower",
      "outputs": [
        {
          "name": "",
          "type": "address"
        }
      ],
      "payable": false,
      "stateMutability": "view",
      "type": "function",
      "signature": "0x7df1f1b9"
    },
    {
      "constant": true,
      "inputs": [
        {
          "name": "idx",
          "type": "uint256"
        }
      ],
      "name": "lenderAt",
      "outputs": [
        {
          "name": "",
          "type": "address"
        },
        {
          "name": "",
          "type": "uint256"
        },
        {
          "name": "",
          "type": "uint256"
        }
      ],
      "payable": false,
      "stateMutability": "view",
      "type": "function",
      "signature": "0x89946311"
    },
    {
      "constant": false,
      "inputs": [],
      "name": "depositFund",
      "outputs": [],
      "payable": true,
      "stateMutability": "payable",
      "type": "function",
      "signature": "0x8d0d8cb6"
    },
    {
      "constant": true,
      "inputs": [],
      "name": "owner",
      "outputs": [
        {
          "name": "",
          "type": "address"
        }
      ],
      "payable": false,
      "stateMutability": "view",
      "type": "function",
      "signature": "0x8da5cb5b"
    },
    {
      "constant": true,
      "inputs": [],
      "name": "isOwner",
      "outputs": [
        {
          "name": "",
          "type": "bool"
        }
      ],
      "payable": false,
      "stateMutability": "view",
      "type": "function",
      "signature": "0x8f32d59b"
    },
    {
      "constant": true,
      "inputs": [],
      "name": "loanAmount",
      "outputs": [
        {
          "name": "",
          "type": "uint256"
        }
      ],
      "payable": false,
      "stateMutability": "view",
      "type": "function",
      "signature": "0x9d585f7f"
    },
    {
      "constant": true,
      "inputs": [],
      "name": "id",
      "outputs": [
        {
          "name": "",
          "type": "bytes32"
        }
      ],
      "payable": false,
      "stateMutability": "view",
      "type": "function",
      "signature": "0xaf640d0f"
    },
    {
      "constant": true,
      "inputs": [],
      "name": "balance",
      "outputs": [
        {
          "name": "",
          "type": "uint256"
        }
      ],
      "payable": false,
      "stateMutability": "view",
      "type": "function",
      "signature": "0xb69ef8a8"
    },
    {
      "constant": false,
      "inputs": [
        {
          "name": "borrower",
          "type": "address"
        },
        {
          "name": "amount",
          "type": "uint256"
        }
      ],
      "name": "request",
      "outputs": [],
      "payable": false,
      "stateMutability": "nonpayable",
      "type": "function",
      "signature": "0xc8c01a55"
    },
    {
      "constant": true,
      "inputs": [],
      "name": "lenderCount",
      "outputs": [
        {
          "name": "",
          "type": "uint256"
        }
      ],
      "payable": false,
      "stateMutability": "view",
      "type": "function",
      "signature": "0xd2227acf"
    },
    {
      "constant": false,
      "inputs": [],
      "name": "withdrawToBorrower",
      "outputs": [],
      "payable": true,
      "stateMutability": "payable",
      "type": "function",
      "signature": "0xd38da171"
    },
    {
      "constant": false,
      "inputs": [],
      "name": "cancel",
      "outputs": [],
      "payable": false,
      "stateMutability": "nonpayable",
      "type": "function",
      "signature": "0xea8a1af0"
    },
    {
      "constant": false,
      "inputs": [
        {
          "name": "newOwner",
          "type": "address"
        }
      ],
      "name": "transferOwnership",
      "outputs": [],
      "payable": false,
      "stateMutability": "nonpayable",
      "type": "function",
      "signature": "0xf2fde38b"
    },
    {
      "constant": false,
      "inputs": [],
      "name": "toDefault",
      "outputs": [],
      "payable": false,
      "stateMutability": "nonpayable",
      "type": "function",
      "signature": "0xfa0b0aaa"
    },
    {
      "constant": false,
      "inputs": [],
      "name": "withdrawToLenders",
      "outputs": [],
      "payable": true,
      "stateMutability": "payable",
      "type": "function",
      "signature": "0xff1024f1"
    },
    {
      "anonymous": false,
      "inputs": [
        {
          "indexed": true,
          "name": "loanId",
          "type": "bytes32"
        },
        {
          "indexed": true,
          "name": "borrower",
          "type": "address"
        },
        {
          "indexed": false,
          "name": "owner",
          "type": "address"
        }
      ],
      "name": "Requesting",
      "type": "event",
      "signature": "0x432cddca824392e0d67c28ed9c59e94789e1ecd6e170847a54ba420468b097f3"
    },
    {
      "anonymous": false,
      "inputs": [
        {
          "indexed": true,
          "name": "loanId",
          "type": "bytes32"
        },
        {
          "indexed": true,
          "name": "lender",
          "type": "address"
        },
        {
          "indexed": false,
          "name": "amount",
          "type": "uint256"
        }
      ],
      "name": "Funding",
      "type": "event",
      "signature": "0x567ee2fe3df8d4438b27a9f7d5fe1b33f94acd2c68f6a23dde69751fde18e12a"
    },
    {
      "anonymous": false,
      "inputs": [
        {
          "indexed": true,
          "name": "loanId",
          "type": "bytes32"
        },
        {
          "indexed": false,
          "name": "amount",
          "type": "uint256"
        }
      ],
      "name": "Funded",
      "type": "event",
      "signature": "0x9f4592c3bd42bd33860ee93dc92d07f06e3f4fb6e19a9ca214982fe7c1bdb037"
    },
    {
      "anonymous": false,
      "inputs": [
        {
          "indexed": true,
          "name": "loanId",
          "type": "bytes32"
        },
        {
          "indexed": false,
          "name": "amount",
          "type": "uint256"
        }
      ],
      "name": "FundWithdrawn",
      "type": "event",
      "signature": "0xa3b20715ecbfc0df1fd9080734769d9acd91e86de1cbd3625392170cdcfd6f14"
    },
    {
      "anonymous": false,
      "inputs": [
        {
          "indexed": true,
          "name": "loanId",
          "type": "bytes32"
        },
        {
          "indexed": false,
          "name": "amount",
          "type": "uint256"
        }
      ],
      "name": "Repaid",
      "type": "event",
      "signature": "0x7386151a988d74496e6fc96f665998a762fa92fc6693880496a4d6785b2fdd23"
    },
    {
      "anonymous": false,
      "inputs": [
        {
          "indexed": true,
          "name": "loanId",
          "type": "bytes32"
        },
        {
          "indexed": true,
          "name": "borrower",
          "type": "address"
        },
        {
          "indexed": false,
          "name": "defaultedAmt",
          "type": "uint256"
        },
        {
          "indexed": false,
          "name": "loanAmt",
          "type": "uint256"
        }
      ],
      "name": "Defaulted",
      "type": "event",
      "signature": "0x21382a74b434572c04970aea2623b00513ab62f964d9f8bca396d9e28a2c9f32"
    },
    {
      "anonymous": false,
      "inputs": [
        {
          "indexed": true,
          "name": "loanId",
          "type": "bytes32"
        },
        {
          "indexed": true,
          "name": "lender",
          "type": "address"
        },
        {
          "indexed": false,
          "name": "amount",
          "type": "uint256"
        }
      ],
      "name": "Refunded",
      "type": "event",
      "signature": "0xf552ca82e113ac3c539c3d617f29fcd19c172a0c75dad017555c9e109f7fe183"
    },
    {
      "anonymous": false,
      "inputs": [
        {
          "indexed": true,
          "name": "loanId",
          "type": "bytes32"
        }
      ],
      "name": "Cancelled",
      "type": "event",
      "signature": "0xbaa1eb22f2a492ba1a5fea61b8df4d27c6c8b5f3971e63bb58fa14ff72eedb70"
    },
    {
      "anonymous": false,
      "inputs": [
        {
          "indexed": true,
          "name": "loanId",
          "type": "bytes32"
        }
      ],
      "name": "Stopped",
      "type": "event",
      "signature": "0x1d19fd95a8301a83d3e02da59d47316f37bb99675c57158849e48e8b6d5cd1ba"
    },
    {
      "anonymous": false,
      "inputs": [
        {
          "indexed": true,
          "name": "loanId",
          "type": "bytes32"
        }
      ],
      "name": "Resumed",
      "type": "event",
      "signature": "0x0f32c8acd3779bbdc4f25017f9d48e6a5d2a6741de679a4059bf2fff7456213c"
    },
    {
      "anonymous": false,
      "inputs": [
        {
          "indexed": true,
          "name": "loanId",
          "type": "bytes32"
        }
      ],
      "name": "Closed",
      "type": "event",
      "signature": "0x7b6ac8bce3193cb9464e9070476bf8926e449f5f743f8c7578eea15265467d79"
    },
    {
      "anonymous": false,
      "inputs": [
        {
          "indexed": true,
          "name": "previousOwner",
          "type": "address"
        },
        {
          "indexed": true,
          "name": "newOwner",
          "type": "address"
        }
      ],
      "name": "OwnershipTransferred",
      "type": "event",
      "signature": "0x8be0079c531659141344cd1fd0a4f28419497f9722a3daafe3b4186f6b6457e0"
    },
    {
      "constant": false,
      "inputs": [
        {
          "name": "time",
          "type": "uint256"
        }
      ],
      "name": "moveBackFullyFundedTime",
      "outputs": [],
      "payable": false,
      "stateMutability": "nonpayable",
      "type": "function",
      "signature": "0x63296831"
    },
    {
      "constant": false,
      "inputs": [
        {
          "name": "time",
          "type": "uint256"
        }
      ],
      "name": "moveBackRepaidTime",
      "outputs": [],
      "payable": false,
      "stateMutability": "nonpayable",
      "type": "function",
      "signature": "0x9cc7ca4e"
    },
    {
      "constant": false,
      "inputs": [
        {
          "name": "time",
          "type": "uint256"
        }
      ],
      "name": "moveBackCreationTime",
      "outputs": [],
      "payable": false,
      "stateMutability": "nonpayable",
      "type": "function",
      "signature": "0x963bd7fc"
    }
  ],
  "bytecode": "0x608060405242600655336000806101000a81548173ffffffffffffffffffffffffffffffffffffffff021916908373ffffffffffffffffffffffffffffffffffffffff1602179055506000809054906101000a900473ffffffffffffffffffffffffffffffffffffffff1673ffffffffffffffffffffffffffffffffffffffff16600073ffffffffffffffffffffffffffffffffffffffff167f8be0079c531659141344cd1fd0a4f28419497f9722a3daafe3b4186f6b6457e060405160405180910390a36000600960006101000a81548160ff02191690836008811115620000e457fe5b021790555062000143600260009054906101000a900473ffffffffffffffffffffffffffffffffffffffff166200012962000156640100000000026401000000009004565b6200017f64010000000002620034cd176401000000009004565b60018190555042600681905550620001c2565b60008060009054906101000a900473ffffffffffffffffffffffffffffffffffffffff16905090565b600080428373ffffffffffffffffffffffffffffffffffffffff168573ffffffffffffffffffffffffffffffffffffffff16030190508060010291505092915050565b61353c80620001d26000396000f3fe60806040526004361061015f576000357c0100000000000000000000000000000000000000000000000000000000900463ffffffff168063046f7da21461016457806307da68f51461017b57806307e547981461019257806310919b4f146101bd578063200d2ed214610238578063402d888314610271578063590e1ae31461027b5780636329683114610285578063715018a6146102c0578063751d1156146102d75780637df1f1b91461037657806389946311146103cd5780638d0d8cb6146104565780638da5cb5b146104605780638f32d59b146104b7578063963bd7fc146104e65780639cc7ca4e146105215780639d585f7f1461055c578063af640d0f14610587578063b69ef8a8146105b2578063c8c01a55146105dd578063d2227acf14610638578063d38da17114610663578063ea8a1af01461066d578063f2fde38b14610684578063fa0b0aaa146106d5578063ff1024f1146106ec575b600080fd5b34801561017057600080fd5b506101796106f6565b005b34801561018757600080fd5b506101906107be565b005b34801561019e57600080fd5b506101a7610886565b6040518082815260200191505060405180910390f35b3480156101c957600080fd5b506101f6600480360360208110156101e057600080fd5b8101908080359060200190929190505050610890565b604051808273ffffffffffffffffffffffffffffffffffffffff1673ffffffffffffffffffffffffffffffffffffffff16815260200191505060405180910390f35b34801561024457600080fd5b5061024d6108cd565b6040518082600881111561025d57fe5b60ff16815260200191505060405180910390f35b6102796108e4565b005b6102836108ee565b005b34801561029157600080fd5b506102be600480360360208110156102a857600080fd5b81019080803590602001909291905050506108f8565b005b3480156102cc57600080fd5b506102d561090b565b005b3480156102e357600080fd5b50610326600480360360208110156102fa57600080fd5b81019080803573ffffffffffffffffffffffffffffffffffffffff169060200190929190505050610a46565b604051808473ffffffffffffffffffffffffffffffffffffffff1673ffffffffffffffffffffffffffffffffffffffff168152602001838152602001828152602001935050505060405180910390f35b34801561038257600080fd5b5061038b610b78565b604051808273ffffffffffffffffffffffffffffffffffffffff1673ffffffffffffffffffffffffffffffffffffffff16815260200191505060405180910390f35b3480156103d957600080fd5b50610406600480360360208110156103f057600080fd5b8101908080359060200190929190505050610ba2565b604051808473ffffffffffffffffffffffffffffffffffffffff1673ffffffffffffffffffffffffffffffffffffffff168152602001838152602001828152602001935050505060405180910390f35b61045e610bc5565b005b34801561046c57600080fd5b50610475610bcf565b604051808273ffffffffffffffffffffffffffffffffffffffff1673ffffffffffffffffffffffffffffffffffffffff16815260200191505060405180910390f35b3480156104c357600080fd5b506104cc610bf8565b604051808215151515815260200191505060405180910390f35b3480156104f257600080fd5b5061051f6004803603602081101561050957600080fd5b8101908080359060200190929190505050610c4f565b005b34801561052d57600080fd5b5061055a6004803603602081101561054457600080fd5b8101908080359060200190929190505050610c62565b005b34801561056857600080fd5b50610571610c75565b6040518082815260200191505060405180910390f35b34801561059357600080fd5b5061059c610c7f565b6040518082815260200191505060405180910390f35b3480156105be57600080fd5b506105c7610c89565b6040518082815260200191505060405180910390f35b3480156105e957600080fd5b506106366004803603604081101561060057600080fd5b81019080803573ffffffffffffffffffffffffffffffffffffffff16906020019092919080359060200190929190505050610ca8565b005b34801561064457600080fd5b5061064d610cb6565b6040518082815260200191505060405180910390f35b61066b610cc0565b005b34801561067957600080fd5b50610682610d74565b005b34801561069057600080fd5b506106d3600480360360208110156106a757600080fd5b81019080803573ffffffffffffffffffffffffffffffffffffffff169060200190929190505050610d7e565b005b3480156106e157600080fd5b506106ea610e06565b005b6106f4610eba565b005b6106fe610bf8565b1515610772576040517f08c379a00000000000000000000000000000000000000000000000000000000081526004018080602001828103825260198152602001807f417574686f72697a656420666f72206f776e6572206f6e6c790000000000000081525060200191505060405180910390fd5b6000600960016101000a81548160ff0219169083151502179055506001547f0f32c8acd3779bbdc4f25017f9d48e6a5d2a6741de679a4059bf2fff7456213c60405160405180910390a2565b6107c6610bf8565b151561083a576040517f08c379a00000000000000000000000000000000000000000000000000000000081526004018080602001828103825260198152602001807f417574686f72697a656420666f72206f776e6572206f6e6c790000000000000081525060200191505060405180910390fd5b6001600960016101000a81548160ff0219169083151502179055506001547f1d19fd95a8301a83d3e02da59d47316f37bb99675c57158849e48e8b6d5cd1ba60405160405180910390a2565b6000600454905090565b6000600b600083815260200190815260200160002060009054906101000a900473ffffffffffffffffffffffffffffffffffffffff169050919050565b6000600960009054906101000a900460ff16905090565b6108ec61100b565b565b6108f661135b565b565b8060076000828254039250508190555050565b610913610bf8565b1515610987576040517f08c379a00000000000000000000000000000000000000000000000000000000081526004018080602001828103825260198152602001807f417574686f72697a656420666f72206f776e6572206f6e6c790000000000000081525060200191505060405180910390fd5b600073ffffffffffffffffffffffffffffffffffffffff166000809054906101000a900473ffffffffffffffffffffffffffffffffffffffff1673ffffffffffffffffffffffffffffffffffffffff167f8be0079c531659141344cd1fd0a4f28419497f9722a3daafe3b4186f6b6457e060405160405180910390a360008060006101000a81548173ffffffffffffffffffffffffffffffffffffffff021916908373ffffffffffffffffffffffffffffffffffffffff160217905550565b60008060008073ffffffffffffffffffffffffffffffffffffffff168473ffffffffffffffffffffffffffffffffffffffff161415610a98576000806000829250819150809050925092509250610b71565b610aa0613495565b600a60008673ffffffffffffffffffffffffffffffffffffffff1673ffffffffffffffffffffffffffffffffffffffff168152602001908152602001600020606060405190810160405290816000820160009054906101000a900473ffffffffffffffffffffffffffffffffffffffff1673ffffffffffffffffffffffffffffffffffffffff1673ffffffffffffffffffffffffffffffffffffffff168152602001600182015481526020016002820154815250509050806000015181602001518260400151829250935093509350505b9193909250565b6000600260009054906101000a900473ffffffffffffffffffffffffffffffffffffffff16905090565b6000806000610bb8610bb385610890565b610a46565b9250925092509193909250565b610bcd61192e565b565b60008060009054906101000a900473ffffffffffffffffffffffffffffffffffffffff16905090565b60008060009054906101000a900473ffffffffffffffffffffffffffffffffffffffff1673ffffffffffffffffffffffffffffffffffffffff163373ffffffffffffffffffffffffffffffffffffffff1614905090565b8060066000828254039250508190555050565b8060086000828254039250508190555050565b6000600354905090565b6000600154905090565b60003073ffffffffffffffffffffffffffffffffffffffff1631905090565b610cb282826120bc565b5050565b6000600554905090565b610cd06201518060075401612462565b1515610d6a576040517f08c379a000000000000000000000000000000000000000000000000000000000815260040180806020018281038252602b8152602001807f417574686f72697a6564206f6e6c79206166746572203120646179206f66206681526020017f756c6c792066756e64656400000000000000000000000000000000000000000081525060400191505060405180910390fd5b610d7261246f565b565b610d7c6127d8565b565b610d86610bf8565b1515610dfa576040517f08c379a00000000000000000000000000000000000000000000000000000000081526004018080602001828103825260198152602001807f417574686f72697a656420666f72206f776e6572206f6e6c790000000000000081525060200191505060405180910390fd5b610e0381612af3565b50565b610e166206978060065401612462565b1515610eb0576040517f08c379a000000000000000000000000000000000000000000000000000000000815260040180806020018281038252602d8152602001807f417574686f72697a6564206f6e6c7920616674657220636f6e7472616374206381526020017f726561746564203520646179730000000000000000000000000000000000000081525060400191505060405180910390fd5b610eb8612bed565b565b60046008811115610ec757fe5b600960009054906101000a900460ff166008811115610ee257fe5b141515610f57576040517f08c379a000000000000000000000000000000000000000000000000000000000815260040180806020018281038252601a8152602001807f5374617475732073686f756c6420626520696e2052657061696400000000000081525060200191505060405180910390fd5b610f676202a30060085401612462565b1515611001576040517f08c379a00000000000000000000000000000000000000000000000000000000081526004018080602001828103825260248152602001807f417574686f72697a6564206f6e6c79206166746572203220646179206f66207281526020017f657061790000000000000000000000000000000000000000000000000000000081525060400191505060405180910390fd5b611009612f2f565b565b6003600881111561101857fe5b600960009054906101000a900460ff16600881111561103357fe5b1415156110a8576040517f08c379a00000000000000000000000000000000000000000000000000000000081526004018080602001828103825260198152602001807f5265717569726564205374617475733a2057697468647261770000000000000081525060200191505060405180910390fd5b60011515600960019054906101000a900460ff16151514151515611180576040517f08c379a00000000000000000000000000000000000000000000000000000000081526004018080602001828103825260548152602001807f546865207374617465206f662074686520636f6e74726163742069732073746f81526020017f7070656420627920746865206f776e65722c206e6f206f7065726174696f6e7381526020017f20616c6c6f7720617420746869732074696d652e00000000000000000000000081525060600191505060405180910390fd5b600260009054906101000a900473ffffffffffffffffffffffffffffffffffffffff1673ffffffffffffffffffffffffffffffffffffffff163373ffffffffffffffffffffffffffffffffffffffff16141515611245576040517f08c379a000000000000000000000000000000000000000000000000000000000815260040180806020018281038252601d8152602001807f417574686f72697a656420666f7220626f72726f776572206f6e6c792e00000081525060200191505060405180910390fd5b600454341415156112e4576040517f08c379a000000000000000000000000000000000000000000000000000000000815260040180806020018281038252602b8152602001807f52657061696420616d6f756e74206e6f74207468652073616d6520617320616d81526020017f6f756e74206f776e65642e00000000000000000000000000000000000000000081525060400191505060405180910390fd5b346004600082825403925050819055506004600960006101000a81548160ff0219169083600881111561131357fe5b0217905550426008819055506001547f7386151a988d74496e6fc96f665998a762fa92fc6693880496a4d6785b2fdd23346040518082815260200191505060405180910390a2565b6001600881111561136857fe5b600960009054906101000a900460ff16600881111561138357fe5b14806113b457506002600881111561139757fe5b600960009054906101000a900460ff1660088111156113b257fe5b145b151561144e576040517f08c379a00000000000000000000000000000000000000000000000000000000081526004018080602001828103825260228152602001807f5265717569726564205374617475733a2046756e64696e67206f722046756e6481526020017f656400000000000000000000000000000000000000000000000000000000000081525060400191505060405180910390fd5b60011515600960019054906101000a900460ff16151514151515611526576040517f08c379a00000000000000000000000000000000000000000000000000000000081526004018080602001828103825260548152602001807f546865207374617465206f662074686520636f6e74726163742069732073746f81526020017f7070656420627920746865206f776e65722c206e6f206f7065726174696f6e7381526020017f20616c6c6f7720617420746869732074696d652e00000000000000000000000081525060600191505060405180910390fd5b61152e610bf8565b15156115a2576040517f08c379a00000000000000000000000000000000000000000000000000000000081526004018080602001828103825260198152602001807f417574686f72697a656420666f72206f776e6572206f6e6c790000000000000081525060200191505060405180910390fd5b6115aa610c89565b600454141515611648576040517f08c379a000000000000000000000000000000000000000000000000000000000815260040180806020018281038252602c8152602001807f42616c616e6365206973206e6f7420656e6f75676820746f20726566756e642081526020017f616c6c206c656e646572732e000000000000000000000000000000000000000081525060400191505060405180910390fd5b60008090505b6005548110156118ff57611660613495565b600a6000600b600085815260200190815260200160002060009054906101000a900473ffffffffffffffffffffffffffffffffffffffff1673ffffffffffffffffffffffffffffffffffffffff1673ffffffffffffffffffffffffffffffffffffffff168152602001908152602001600020606060405190810160405290816000820160009054906101000a900473ffffffffffffffffffffffffffffffffffffffff1673ffffffffffffffffffffffffffffffffffffffff1673ffffffffffffffffffffffffffffffffffffffff168152602001600182015481526020016002820154815250509050600073ffffffffffffffffffffffffffffffffffffffff16816000015173ffffffffffffffffffffffffffffffffffffffff161415156118f157600081602001519050600082600001519050600a6000600b600087815260200190815260200160002060009054906101000a900473ffffffffffffffffffffffffffffffffffffffff1673ffffffffffffffffffffffffffffffffffffffff1673ffffffffffffffffffffffffffffffffffffffff168152602001908152602001600020600080820160006101000a81549073ffffffffffffffffffffffffffffffffffffffff021916905560018201600090556002820160009055505081600460008282540392505081905550826000015173ffffffffffffffffffffffffffffffffffffffff166108fc839081150290604051600060405180830381858888f1935050505015801561189c573d6000803e3d6000fd5b508073ffffffffffffffffffffffffffffffffffffffff166001547ff552ca82e113ac3c539c3d617f29fcd19c172a0c75dad017555c9e109f7fe183846040518082815260200191505060405180910390a350505b50808060010191505061164e565b5060006005819055506006600960006101000a81548160ff0219169083600881111561192757fe5b0217905550565b6001600881111561193b57fe5b600960009054906101000a900460ff16600881111561195657fe5b1415156119cb576040517f08c379a00000000000000000000000000000000000000000000000000000000081526004018080602001828103825260188152602001807f5265717569726564205374617475733a2046756e64696e67000000000000000081525060200191505060405180910390fd5b60011515600960019054906101000a900460ff16151514151515611aa3576040517f08c379a00000000000000000000000000000000000000000000000000000000081526004018080602001828103825260548152602001807f546865207374617465206f662074686520636f6e74726163742069732073746f81526020017f7070656420627920746865206f776e65722c206e6f206f7065726174696f6e7381526020017f20616c6c6f7720617420746869732074696d652e00000000000000000000000081525060600191505060405180910390fd5b6003543411151515611b43576040517f08c379a000000000000000000000000000000000000000000000000000000000815260040180806020018281038252602c8152602001807f4c656e64696e6720616d6f756e74206973206d6f72652074686520616d6f756e81526020017f74207265717565737465642e000000000000000000000000000000000000000081525060400191505060405180910390fd5b600454600354033411151515611be7576040517f08c379a00000000000000000000000000000000000000000000000000000000081526004018080602001828103825260328152602001807f4c656e64696e6720616d6f756e74206973206d6f7265207468616e2072656d6181526020017f696e696e672066756e64206e65656465642e000000000000000000000000000081525060400191505060405180910390fd5b600073ffffffffffffffffffffffffffffffffffffffff16600a60003373ffffffffffffffffffffffffffffffffffffffff1673ffffffffffffffffffffffffffffffffffffffff16815260200190815260200160002060000160009054906101000a900473ffffffffffffffffffffffffffffffffffffffff1673ffffffffffffffffffffffffffffffffffffffff16141515611ced576040517f08c379a00000000000000000000000000000000000000000000000000000000081526004018080602001828103825260108152602001807f4578697374696e67206c656e6465722e0000000000000000000000000000000081525060200191505060405180910390fd5b611cf5610bcf565b73ffffffffffffffffffffffffffffffffffffffff163373ffffffffffffffffffffffffffffffffffffffff1614151515611dbe576040517f08c379a000000000000000000000000000000000000000000000000000000000815260040180806020018281038252602d8152602001807f4f776e65722063616e27742062652061206c656e64657220696e20746865207381526020017f616d6520636f6e74726163742e0000000000000000000000000000000000000081525060400191505060405180910390fd5b600260009054906101000a900473ffffffffffffffffffffffffffffffffffffffff1673ffffffffffffffffffffffffffffffffffffffff163373ffffffffffffffffffffffffffffffffffffffff1614151515611eaa576040517f08c379a00000000000000000000000000000000000000000000000000000000081526004018080602001828103825260308152602001807f426f72726f7765722063616e27742062652061206c656e64657220696e20746881526020017f652073616d6520636f6e74726163742e0000000000000000000000000000000081525060400191505060405180910390fd5b6060604051908101604052803373ffffffffffffffffffffffffffffffffffffffff1681526020013481526020016000815250600a60003373ffffffffffffffffffffffffffffffffffffffff1673ffffffffffffffffffffffffffffffffffffffff16815260200190815260200160002060008201518160000160006101000a81548173ffffffffffffffffffffffffffffffffffffffff021916908373ffffffffffffffffffffffffffffffffffffffff160217905550602082015181600101556040820151816002015590505033600b6000600554815260200190815260200160002060006101000a81548173ffffffffffffffffffffffffffffffffffffffff021916908373ffffffffffffffffffffffffffffffffffffffff160217905550600560008154809291906001019190505550346004600082825401925050819055503373ffffffffffffffffffffffffffffffffffffffff166001547f567ee2fe3df8d4438b27a9f7d5fe1b33f94acd2c68f6a23dde69751fde18e12a346040518082815260200191505060405180910390a360035461204c610c89565b14156120ba576002600960006101000a81548160ff0219169083600881111561207157fe5b0217905550426007819055506001547f9f4592c3bd42bd33860ee93dc92d07f06e3f4fb6e19a9ca214982fe7c1bdb0376003546040518082815260200191505060405180910390a25b565b6120c4610bf8565b1515612138576040517f08c379a00000000000000000000000000000000000000000000000000000000081526004018080602001828103825260198152602001807f417574686f72697a656420666f72206f776e6572206f6e6c790000000000000081525060200191505060405180910390fd5b600073ffffffffffffffffffffffffffffffffffffffff168273ffffffffffffffffffffffffffffffffffffffff16141515156121dd576040517f08c379a00000000000000000000000000000000000000000000000000000000081526004018080602001828103825260108152602001807f4164647265737320697320656d7074790000000000000000000000000000000081525060200191505060405180910390fd5b6121e5610bcf565b73ffffffffffffffffffffffffffffffffffffffff168273ffffffffffffffffffffffffffffffffffffffff16141515156122ae576040517f08c379a00000000000000000000000000000000000000000000000000000000081526004018080602001828103825260298152602001807f4f776e65722063616e277420626520626f72726f77657220617420746865207381526020017f616d652074696d652e000000000000000000000000000000000000000000000081525060400191505060405180910390fd5b60008111151561234c576040517f08c379a00000000000000000000000000000000000000000000000000000000081526004018080602001828103825260228152602001807f30206973206e6f7420612076616c696420626f72726f77696e6720616d6f756e81526020017f742e00000000000000000000000000000000000000000000000000000000000081525060400191505060405180910390fd5b81600260006101000a81548173ffffffffffffffffffffffffffffffffffffffff021916908373ffffffffffffffffffffffffffffffffffffffff160217905550806003819055506001600960006101000a81548160ff021916908360088111156123b357fe5b0217905550600260009054906101000a900473ffffffffffffffffffffffffffffffffffffffff1673ffffffffffffffffffffffffffffffffffffffff166001547f432cddca824392e0d67c28ed9c59e94789e1ecd6e170847a54ba420468b097f361241d610bcf565b604051808273ffffffffffffffffffffffffffffffffffffffff1673ffffffffffffffffffffffffffffffffffffffff16815260200191505060405180910390a35050565b6000814210159050919050565b6002600881111561247c57fe5b600960009054906101000a900460ff16600881111561249757fe5b14151561250c576040517f08c379a00000000000000000000000000000000000000000000000000000000081526004018080602001828103825260178152602001807f5265717569726564205374617475733a2046756e64656400000000000000000081525060200191505060405180910390fd5b60011515600960019054906101000a900460ff161515141515156125e4576040517f08c379a00000000000000000000000000000000000000000000000000000000081526004018080602001828103825260548152602001807f546865207374617465206f662074686520636f6e74726163742069732073746f81526020017f7070656420627920746865206f776e65722c206e6f206f7065726174696f6e7381526020017f20616c6c6f7720617420746869732074696d652e00000000000000000000000081525060600191505060405180910390fd5b600260009054906101000a900473ffffffffffffffffffffffffffffffffffffffff1673ffffffffffffffffffffffffffffffffffffffff163373ffffffffffffffffffffffffffffffffffffffff161415156126a9576040517f08c379a000000000000000000000000000000000000000000000000000000000815260040180806020018281038252601d8152602001807f417574686f72697a656420666f7220626f72726f776572206f6e6c792e00000081525060200191505060405180910390fd5b60006126b3610c89565b111515612728576040517f08c379a000000000000000000000000000000000000000000000000000000000815260040180806020018281038252601b8152602001807f5468652062616c616e636520697320302063757272656e746c792e000000000081525060200191505060405180910390fd5b6003600960006101000a81548160ff0219169083600881111561274757fe5b02179055503373ffffffffffffffffffffffffffffffffffffffff166108fc61276e610c89565b9081150290604051600060405180830381858888f19350505050158015612799573d6000803e3d6000fd5b506001547fa3b20715ecbfc0df1fd9080734769d9acd91e86de1cbd3625392170cdcfd6f146004546040518082815260200191505060405180910390a2565b60011515600960019054906101000a900460ff161515141515156128b0576040517f08c379a00000000000000000000000000000000000000000000000000000000081526004018080602001828103825260548152602001807f546865207374617465206f662074686520636f6e74726163742069732073746f81526020017f7070656420627920746865206f776e65722c206e6f206f7065726174696f6e7381526020017f20616c6c6f7720617420746869732074696d652e00000000000000000000000081525060600191505060405180910390fd5b600260009054906101000a900473ffffffffffffffffffffffffffffffffffffffff1673ffffffffffffffffffffffffffffffffffffffff163373ffffffffffffffffffffffffffffffffffffffff16148061293e575061290f610bcf565b73ffffffffffffffffffffffffffffffffffffffff163373ffffffffffffffffffffffffffffffffffffffff16145b15156129d8576040517f08c379a00000000000000000000000000000000000000000000000000000000081526004018080602001828103825260268152602001807f417574686f72697a656420666f7220626f72726f776572206f72206f776e657281526020017f206f6e6c792e000000000000000000000000000000000000000000000000000081525060400191505060405180910390fd5b6000600554141515612a9e576040517f08c379a000000000000000000000000000000000000000000000000000000000815260040180806020018281038252605b8152602001807f43616e27742063616e63656c6c656420636f6e7472616374207768656e20667581526020017f6e642069732070726f76696465642e2046756e64206e65656420746f2062652081526020017f72657475726e206669727374206265666f72652063616e63656c2e000000000081525060600191505060405180910390fd5b6007600960006101000a81548160ff02191690836008811115612abd57fe5b02179055506001547fbaa1eb22f2a492ba1a5fea61b8df4d27c6c8b5f3971e63bb58fa14ff72eedb7060405160405180910390a2565b600073ffffffffffffffffffffffffffffffffffffffff168173ffffffffffffffffffffffffffffffffffffffff1614151515612b2f57600080fd5b8073ffffffffffffffffffffffffffffffffffffffff166000809054906101000a900473ffffffffffffffffffffffffffffffffffffffff1673ffffffffffffffffffffffffffffffffffffffff167f8be0079c531659141344cd1fd0a4f28419497f9722a3daafe3b4186f6b6457e060405160405180910390a3806000806101000a81548173ffffffffffffffffffffffffffffffffffffffff021916908373ffffffffffffffffffffffffffffffffffffffff16021790555050565b60036008811115612bfa57fe5b600960009054906101000a900460ff166008811115612c1557fe5b141515612c8a576040517f08c379a00000000000000000000000000000000000000000000000000000000081526004018080602001828103825260198152602001807f5265717569726564205374617475733a2057697468647261770000000000000081525060200191505060405180910390fd5b60011515600960019054906101000a900460ff16151514151515612d62576040517f08c379a00000000000000000000000000000000000000000000000000000000081526004018080602001828103825260548152602001807f546865207374617465206f662074686520636f6e74726163742069732073746f81526020017f7070656420627920746865206f776e65722c206e6f206f7065726174696f6e7381526020017f20616c6c6f7720617420746869732074696d652e00000000000000000000000081525060600191505060405180910390fd5b600260009054906101000a900473ffffffffffffffffffffffffffffffffffffffff1673ffffffffffffffffffffffffffffffffffffffff163373ffffffffffffffffffffffffffffffffffffffff161480612df05750612dc1610bcf565b73ffffffffffffffffffffffffffffffffffffffff163373ffffffffffffffffffffffffffffffffffffffff16145b1515612e8a576040517f08c379a00000000000000000000000000000000000000000000000000000000081526004018080602001828103825260268152602001807f417574686f72697a656420666f7220626f72726f776572206f72206f776e657281526020017f206f6e6c792e000000000000000000000000000000000000000000000000000081525060400191505060405180910390fd5b6005600960006101000a81548160ff02191690836008811115612ea957fe5b0217905550600260009054906101000a900473ffffffffffffffffffffffffffffffffffffffff1673ffffffffffffffffffffffffffffffffffffffff166001547f21382a74b434572c04970aea2623b00513ab62f964d9f8bca396d9e28a2c9f32600454600354604051808381526020018281526020019250505060405180910390a3565b60046008811115612f3c57fe5b600960009054906101000a900460ff166008811115612f5757fe5b141515612fcc576040517f08c379a00000000000000000000000000000000000000000000000000000000081526004018080602001828103825260178152602001807f5265717569726564205374617475733a2052657061696400000000000000000081525060200191505060405180910390fd5b60011515600960019054906101000a900460ff161515141515156130a4576040517f08c379a00000000000000000000000000000000000000000000000000000000081526004018080602001828103825260548152602001807f546865207374617465206f662074686520636f6e74726163742069732073746f81526020017f7070656420627920746865206f776e65722c206e6f206f7065726174696f6e7381526020017f20616c6c6f7720617420746869732074696d652e00000000000000000000000081525060600191505060405180910390fd5b6130ac610bf8565b1515613120576040517f08c379a00000000000000000000000000000000000000000000000000000000081526004018080602001828103825260198152602001807f417574686f72697a656420666f72206f776e6572206f6e6c790000000000000081525060200191505060405180910390fd5b613128610c89565b6003541415156131c6576040517f08c379a000000000000000000000000000000000000000000000000000000000815260040180806020018281038252602c8152602001807f42616c616e6365206973206e6f7420656e6f75676820746f20726566756e642081526020017f616c6c206c656e646572732e000000000000000000000000000000000000000081525060400191505060405180910390fd5b60008090505b60055481101561343f576131de613495565b600a6000600b600085815260200190815260200160002060009054906101000a900473ffffffffffffffffffffffffffffffffffffffff1673ffffffffffffffffffffffffffffffffffffffff1673ffffffffffffffffffffffffffffffffffffffff168152602001908152602001600020606060405190810160405290816000820160009054906101000a900473ffffffffffffffffffffffffffffffffffffffff1673ffffffffffffffffffffffffffffffffffffffff1673ffffffffffffffffffffffffffffffffffffffff168152602001600182015481526020016002820154815250509050600073ffffffffffffffffffffffffffffffffffffffff16816000015173ffffffffffffffffffffffffffffffffffffffff1614151561343157806020015181604001818152505080600a6000600b600086815260200190815260200160002060009054906101000a900473ffffffffffffffffffffffffffffffffffffffff1673ffffffffffffffffffffffffffffffffffffffff1673ffffffffffffffffffffffffffffffffffffffff16815260200190815260200160002060008201518160000160006101000a81548173ffffffffffffffffffffffffffffffffffffffff021916908373ffffffffffffffffffffffffffffffffffffffff1602179055506020820151816001015560408201518160020155905050806000015173ffffffffffffffffffffffffffffffffffffffff166108fc82604001519081150290604051600060405180830381858888f1935050505015801561342f573d6000803e3d6000fd5b505b5080806001019150506131cc565b506008600960006101000a81548160ff0219169083600881111561345f57fe5b02179055506001547f7b6ac8bce3193cb9464e9070476bf8926e449f5f743f8c7578eea15265467d7960405160405180910390a2565b606060405190810160405280600073ffffffffffffffffffffffffffffffffffffffff16815260200160008152602001600081525090565b600080428373ffffffffffffffffffffffffffffffffffffffff168573ffffffffffffffffffffffffffffffffffffffff1603019050806001029150509291505056fea165627a7a72305820d50123cedd78eba6398770e674e6a5d368ccecaf112667e2278ba9e62497dee60029",
  "source": "pragma solidity ^0.5.0;\n\nimport \"../TimeSecuredLoan.sol\";\n\n/**\n * @title Mock Time Secured Simple Loan\n * @dev Mockup contract to have method to update the fullyfunded and repaid time so the test cases can be \n * run accordingly.\n */\ncontract MockTimeSecuredLoan is TimeSecuredLoan {\n    \n    /**\n     * @dev substract the fully funded time from the give time.\n     * @param time in seconds\n     */\n    function moveBackFullyFundedTime(uint time) external {\n        _fullyFundedTime -= time;\n    }\n\n    /**\n     * @dev substract the repaid time from the give time.\n     * @param time in seconds\n     */\n    function moveBackRepaidTime(uint time) external {\n        _repaidTime -= time;\n    }\n\n    /**\n     * @dev substract the creation time from the give time.\n     * @param time in seconds\n     */\n    function moveBackCreationTime(uint time) external {\n        _creationTime -= time;\n    }\n}",
  "sourcePath": "/Users/furydev/consensysdev/simple-loan/contracts/mocks/MockTimeSecuredLoan.sol",
  "compiler": {
    "name": "solc",
    "version": "0.5.0+commit.1d4f565a.Emscripten.clang"
  },
  "schemaVersion": "3.0.1",
  "updatedAt": "2019-01-23T11:20:48.756Z",
  "devdoc": {
    "details": "Mockup contract to have method to update the fullyfunded and repaid time so the test cases can be  run accordingly.",
    "methods": {
      "balance()": {
        "details": "getter for contract's balance",
        "return": "current balance of the contract"
      },
      "borrower()": {
        "details": "getter for borrower",
        "return": "borrower address."
      },
      "depositFund()": {
        "details": "Anyone other than the owner and borrower in this case."
      },
      "id()": {
        "details": "getter function for loan id",
        "return": "loan ID in string"
      },
      "isOwner()": {
        "return": "true if `msg.sender` is the owner of the contract."
      },
      "lenderAddressAt(uint256)": {
        "details": "helper function to get lender address by index",
        "params": {
          "idx": "position index"
        },
        "return": "lender address"
      },
      "lenderAt(uint256)": {
        "details": "helper function to get lender from the mapping",
        "params": {
          "idx": "the index position in lender address mapping"
        },
        "return": "a lender info in tuples"
      },
      "lenderBy(address)": {
        "details": "helper function to get lender by its address",
        "params": {
          "addr": "lender address"
        },
        "return": "lender's address, lending amount, and repaid amount in tuples."
      },
      "lenderCount()": {
        "details": "getter for lender counter",
        "return": "number of lenders for this contract"
      },
      "loanAmount()": {
        "details": "getter for loan amount",
        "return": "the loan amount requested by the borrower"
      },
      "moveBackCreationTime(uint256)": {
        "details": "substract the creation time from the give time.",
        "params": {
          "time": "in seconds"
        }
      },
      "moveBackFullyFundedTime(uint256)": {
        "details": "substract the fully funded time from the give time.",
        "params": {
          "time": "in seconds"
        }
      },
      "moveBackRepaidTime(uint256)": {
        "details": "substract the repaid time from the give time.",
        "params": {
          "time": "in seconds"
        }
      },
      "ownedAmount()": {
        "details": "getter for owned amount",
        "return": "the amount withdraw by the borrower"
      },
      "owner()": {
        "return": "the address of the owner."
      },
      "refund()": {
        "details": "It can only refund when the borrower hasn't withdrawn the fund. Only owner (contract brodker) can execute the refund."
      },
      "renounceOwnership()": {
        "details": "Allows the current owner to relinquish control of the contract."
      },
      "request(address,uint256)": {
        "details": "only the owner (or the loan broker in this case) can setup the borrowing info."
      },
      "resume()": {
        "details": "only only can execute this function"
      },
      "status()": {
        "details": "getter for status",
        "return": "current status according to the loan lifecycle"
      },
      "stop()": {
        "details": "only owner can execute this function."
      },
      "transferOwnership(address)": {
        "details": "Allows the current owner to transfer control of the contract to a newOwner.",
        "params": {
          "newOwner": "The address to transfer ownership to."
        }
      },
      "withdrawToBorrower()": {
        "details": "The withdraw only allow after 1 day of the loan is fully funded."
      },
      "withdrawToLenders()": {
        "details": "The withdraw only allow after 2 day of the loan is fully repaid."
      }
    },
    "title": "Mock Time Secured Simple Loan"
  },
  "userdoc": {
    "methods": {
      "cancel()": {
        "notice": "to cancel the loan"
      },
      "depositFund()": {
        "notice": "Deposit fund to the contract balance"
      },
      "refund()": {
        "notice": "Return the deposit fund to lender"
      },
      "renounceOwnership()": {
        "notice": "Renouncing to ownership will leave the contract without an owner. It will not be possible to call the functions with the `onlyOwner` modifier anymore."
      },
      "repay()": {
        "notice": "borrower repay the loan amount to the contract address"
      },
      "request(address,uint256)": {
        "notice": "Setup the loan request with the borrower address and the loan amount"
      },
      "resume()": {
        "notice": "Take the contract out of suspend state."
      },
      "stop()": {
        "notice": "Put the contract in suspend state in the even or ermegency"
      },
      "toDefault()": {
        "notice": "default the loan"
      },
      "withdrawToBorrower()": {
        "notice": "Withdrawing the fund deposited by the lender to borrower account."
      },
      "withdrawToLenders()": {
        "notice": "Widthdraw fund from contract balance back to lender according to the loan amount"
      }
    }
  }
}