{
  "contractName": "StringUtils",
  "abi": [
    {
      "constant": true,
      "inputs": [
        {
          "name": "v",
          "type": "uint256"
        }
      ],
      "name": "uintToBytes",
      "outputs": [
        {
          "name": "ret",
          "type": "bytes32"
        }
      ],
      "payable": false,
      "stateMutability": "pure",
      "type": "function",
      "signature": "0x94e8767d"
    },
    {
      "constant": true,
      "inputs": [
        {
          "name": "v",
          "type": "bytes32"
        }
      ],
      "name": "bytesToUInt",
      "outputs": [
        {
          "name": "ret",
          "type": "uint256"
        }
      ],
      "payable": false,
      "stateMutability": "pure",
      "type": "function",
      "signature": "0x81a33a6f"
    }
  ],
  "bytecode": "0x610276610030600b82828239805160001a6073146000811461002057610022565bfe5b5030600052607381538281f3fe7300000000000000000000000000000000000000003014608060405260043610610063576000357c0100000000000000000000000000000000000000000000000000000000900463ffffffff16806381a33a6f1461006857806394e8767d146100aa575b600080fd5b6100946004803603602081101561007e57600080fd5b81019080803590602001909291905050506100ec565b6040518082815260200191505060405180910390f35b6100d6600480360360208110156100c057600080fd5b810190808035906020019092919050505061019b565b6040518082815260200191505060405180910390f35b600073__StringLib_____________________________6381a33a6f836040518263ffffffff167c01000000000000000000000000000000000000000000000000000000000281526004018082815260200191505060206040518083038186803b15801561015957600080fd5b505af415801561016d573d6000803e3d6000fd5b505050506040513d602081101561018357600080fd5b81019080805190602001909291905050509050919050565b600073__StringLib_____________________________6394e8767d836040518263ffffffff167c01000000000000000000000000000000000000000000000000000000000281526004018082815260200191505060206040518083038186803b15801561020857600080fd5b505af415801561021c573d6000803e3d6000fd5b505050506040513d602081101561023257600080fd5b8101908080519060200190929190505050905091905056fea165627a7a723058203856f470cd06f71488d51b96055b91102ae029d99a855289cccfa3566fab67280029",
  "source": "pragma solidity ^0.5.0;\n// String Utils v0.1\n\n/// @title String Utils - String utility functions\n/// @author Piper Merriam - <pipermerriam@gmail.com>\nlibrary StringLib {\n    /// @dev Converts an unsigned integert to its string representation.\n    /// @param v The number to be converted.\n    function uintToBytes(uint v) public pure returns (bytes32 ret) {\n        if (v == 0) {\n            ret = '0';\n        }\n        else {\n            while (v > 0) {\n                ret = bytes32(uint(ret) / (2 ** 8));\n                ret |= bytes32(((v % 10) + 48) * 2 ** (8 * 31));\n                v /= 10;\n            }\n        }\n        return ret;\n    }\n\n    /// @dev Converts a numeric string to it's unsigned integer representation.\n    /// @param v The string to be converted.\n    function bytesToUInt(bytes32 v) public pure returns (uint ret) {\n        if (v == 0x0) {\n            revert();\n        }\n\n        uint digit;\n\n        for (uint i = 0; i < 32; i++) {\n            digit = uint((uint(v) / (2 ** (8 * (31 - i)))) & 0xff);\n            if (digit == 0) {\n                break;\n            }\n            else if (digit < 48 || digit > 57) {\n                revert();\n            }\n            ret *= 10;\n            ret += (digit - 48);\n        }\n        return ret;\n    }\n}\n\n\n/// @title String Utils - String utility functions\n/// @author Piper Merriam - <pipermerriam@gmail.com>\nlibrary StringUtils {\n    /// @dev Converts an unsigned integert to its string representation.\n    /// @param v The number to be converted.\n    function uintToBytes(uint v) public pure returns (bytes32 ret) {\n            return StringLib.uintToBytes(v);\n    }\n\n    /// @dev Converts a numeric string to it's unsigned integer representation.\n    /// @param v The string to be converted.\n    function bytesToUInt(bytes32 v) public pure returns (uint ret) {\n            return StringLib.bytesToUInt(v);\n    }\n}",
  "sourcePath": "/Users/furydev/ethereumdev/simple-loan/contracts/StringLib.sol",
  "compiler": {
    "name": "solc",
    "version": "0.5.0+commit.1d4f565a.Emscripten.clang"
  },
  "schemaVersion": "3.0.1",
  "updatedAt": "2019-01-22T12:18:43.456Z",
  "devdoc": {
    "author": "Piper Merriam - <pipermerriam@gmail.com>",
    "methods": {
      "bytesToUInt(bytes32)": {
        "details": "Converts a numeric string to it's unsigned integer representation.",
        "params": {
          "v": "The string to be converted."
        }
      },
      "uintToBytes(uint256)": {
        "details": "Converts an unsigned integert to its string representation.",
        "params": {
          "v": "The number to be converted."
        }
      }
    },
    "title": "String Utils - String utility functions"
  },
  "userdoc": {
    "methods": {}
  }
}