{
  "contractName": "TimeSecuredLoan",
  "abi": [
    {
      "constant": false,
      "inputs": [],
      "name": "resume",
      "outputs": [],
      "payable": false,
      "stateMutability": "nonpayable",
      "type": "function",
      "signature": "0x046f7da2"
    },
    {
      "constant": false,
      "inputs": [],
      "name": "stop",
      "outputs": [],
      "payable": false,
      "stateMutability": "nonpayable",
      "type": "function",
      "signature": "0x07da68f5"
    },
    {
      "constant": true,
      "inputs": [],
      "name": "ownedAmount",
      "outputs": [
        {
          "name": "",
          "type": "uint256"
        }
      ],
      "payable": false,
      "stateMutability": "view",
      "type": "function",
      "signature": "0x07e54798"
    },
    {
      "constant": true,
      "inputs": [
        {
          "name": "idx",
          "type": "uint256"
        }
      ],
      "name": "lenderAddressAt",
      "outputs": [
        {
          "name": "",
          "type": "address"
        }
      ],
      "payable": false,
      "stateMutability": "view",
      "type": "function",
      "signature": "0x10919b4f"
    },
    {
      "constant": true,
      "inputs": [],
      "name": "status",
      "outputs": [
        {
          "name": "",
          "type": "uint8"
        }
      ],
      "payable": false,
      "stateMutability": "view",
      "type": "function",
      "signature": "0x200d2ed2"
    },
    {
      "constant": false,
      "inputs": [],
      "name": "renounceOwnership",
      "outputs": [],
      "payable": false,
      "stateMutability": "nonpayable",
      "type": "function",
      "signature": "0x715018a6"
    },
    {
      "constant": true,
      "inputs": [
        {
          "name": "addr",
          "type": "address"
        }
      ],
      "name": "lenderBy",
      "outputs": [
        {
          "name": "",
          "type": "address"
        },
        {
          "name": "",
          "type": "uint256"
        },
        {
          "name": "",
          "type": "uint256"
        }
      ],
      "payable": false,
      "stateMutability": "view",
      "type": "function",
      "signature": "0x751d1156"
    },
    {
      "constant": true,
      "inputs": [],
      "name": "borrower",
      "outputs": [
        {
          "name": "",
          "type": "address"
        }
      ],
      "payable": false,
      "stateMutability": "view",
      "type": "function",
      "signature": "0x7df1f1b9"
    },
    {
      "constant": true,
      "inputs": [
        {
          "name": "idx",
          "type": "uint256"
        }
      ],
      "name": "lenderAt",
      "outputs": [
        {
          "name": "",
          "type": "address"
        },
        {
          "name": "",
          "type": "uint256"
        },
        {
          "name": "",
          "type": "uint256"
        }
      ],
      "payable": false,
      "stateMutability": "view",
      "type": "function",
      "signature": "0x89946311"
    },
    {
      "constant": true,
      "inputs": [],
      "name": "owner",
      "outputs": [
        {
          "name": "",
          "type": "address"
        }
      ],
      "payable": false,
      "stateMutability": "view",
      "type": "function",
      "signature": "0x8da5cb5b"
    },
    {
      "constant": true,
      "inputs": [],
      "name": "isOwner",
      "outputs": [
        {
          "name": "",
          "type": "bool"
        }
      ],
      "payable": false,
      "stateMutability": "view",
      "type": "function",
      "signature": "0x8f32d59b"
    },
    {
      "constant": true,
      "inputs": [],
      "name": "loanAmount",
      "outputs": [
        {
          "name": "",
          "type": "uint256"
        }
      ],
      "payable": false,
      "stateMutability": "view",
      "type": "function",
      "signature": "0x9d585f7f"
    },
    {
      "constant": true,
      "inputs": [],
      "name": "id",
      "outputs": [
        {
          "name": "",
          "type": "bytes32"
        }
      ],
      "payable": false,
      "stateMutability": "view",
      "type": "function",
      "signature": "0xaf640d0f"
    },
    {
      "constant": true,
      "inputs": [],
      "name": "balance",
      "outputs": [
        {
          "name": "",
          "type": "uint256"
        }
      ],
      "payable": false,
      "stateMutability": "view",
      "type": "function",
      "signature": "0xb69ef8a8"
    },
    {
      "constant": true,
      "inputs": [],
      "name": "lenderCount",
      "outputs": [
        {
          "name": "",
          "type": "uint256"
        }
      ],
      "payable": false,
      "stateMutability": "view",
      "type": "function",
      "signature": "0xd2227acf"
    },
    {
      "constant": false,
      "inputs": [
        {
          "name": "newOwner",
          "type": "address"
        }
      ],
      "name": "transferOwnership",
      "outputs": [],
      "payable": false,
      "stateMutability": "nonpayable",
      "type": "function",
      "signature": "0xf2fde38b"
    },
    {
      "anonymous": false,
      "inputs": [
        {
          "indexed": true,
          "name": "loanId",
          "type": "bytes32"
        },
        {
          "indexed": true,
          "name": "borrower",
          "type": "address"
        },
        {
          "indexed": false,
          "name": "owner",
          "type": "address"
        }
      ],
      "name": "Requesting",
      "type": "event",
      "signature": "0x432cddca824392e0d67c28ed9c59e94789e1ecd6e170847a54ba420468b097f3"
    },
    {
      "anonymous": false,
      "inputs": [
        {
          "indexed": true,
          "name": "loanId",
          "type": "bytes32"
        },
        {
          "indexed": true,
          "name": "lender",
          "type": "address"
        },
        {
          "indexed": false,
          "name": "amount",
          "type": "uint256"
        }
      ],
      "name": "Funding",
      "type": "event",
      "signature": "0x567ee2fe3df8d4438b27a9f7d5fe1b33f94acd2c68f6a23dde69751fde18e12a"
    },
    {
      "anonymous": false,
      "inputs": [
        {
          "indexed": true,
          "name": "loanId",
          "type": "bytes32"
        },
        {
          "indexed": false,
          "name": "amount",
          "type": "uint256"
        }
      ],
      "name": "Funded",
      "type": "event",
      "signature": "0x9f4592c3bd42bd33860ee93dc92d07f06e3f4fb6e19a9ca214982fe7c1bdb037"
    },
    {
      "anonymous": false,
      "inputs": [
        {
          "indexed": true,
          "name": "loanId",
          "type": "bytes32"
        },
        {
          "indexed": false,
          "name": "amount",
          "type": "uint256"
        }
      ],
      "name": "FundWithdrawn",
      "type": "event",
      "signature": "0xa3b20715ecbfc0df1fd9080734769d9acd91e86de1cbd3625392170cdcfd6f14"
    },
    {
      "anonymous": false,
      "inputs": [
        {
          "indexed": true,
          "name": "loanId",
          "type": "bytes32"
        },
        {
          "indexed": false,
          "name": "amount",
          "type": "uint256"
        }
      ],
      "name": "Repaid",
      "type": "event",
      "signature": "0x7386151a988d74496e6fc96f665998a762fa92fc6693880496a4d6785b2fdd23"
    },
    {
      "anonymous": false,
      "inputs": [
        {
          "indexed": true,
          "name": "loanId",
          "type": "bytes32"
        },
        {
          "indexed": true,
          "name": "borrower",
          "type": "address"
        },
        {
          "indexed": false,
          "name": "defaultedAmt",
          "type": "uint256"
        },
        {
          "indexed": false,
          "name": "loanAmt",
          "type": "uint256"
        }
      ],
      "name": "Defaulted",
      "type": "event",
      "signature": "0x21382a74b434572c04970aea2623b00513ab62f964d9f8bca396d9e28a2c9f32"
    },
    {
      "anonymous": false,
      "inputs": [
        {
          "indexed": true,
          "name": "loanId",
          "type": "bytes32"
        },
        {
          "indexed": true,
          "name": "lender",
          "type": "address"
        },
        {
          "indexed": false,
          "name": "amount",
          "type": "uint256"
        }
      ],
      "name": "Refunded",
      "type": "event",
      "signature": "0xf552ca82e113ac3c539c3d617f29fcd19c172a0c75dad017555c9e109f7fe183"
    },
    {
      "anonymous": false,
      "inputs": [
        {
          "indexed": true,
          "name": "loanId",
          "type": "bytes32"
        }
      ],
      "name": "Cancelled",
      "type": "event",
      "signature": "0xbaa1eb22f2a492ba1a5fea61b8df4d27c6c8b5f3971e63bb58fa14ff72eedb70"
    },
    {
      "anonymous": false,
      "inputs": [
        {
          "indexed": true,
          "name": "loanId",
          "type": "bytes32"
        }
      ],
      "name": "Stopped",
      "type": "event",
      "signature": "0x1d19fd95a8301a83d3e02da59d47316f37bb99675c57158849e48e8b6d5cd1ba"
    },
    {
      "anonymous": false,
      "inputs": [
        {
          "indexed": true,
          "name": "loanId",
          "type": "bytes32"
        }
      ],
      "name": "Resumed",
      "type": "event",
      "signature": "0x0f32c8acd3779bbdc4f25017f9d48e6a5d2a6741de679a4059bf2fff7456213c"
    },
    {
      "anonymous": false,
      "inputs": [
        {
          "indexed": true,
          "name": "loanId",
          "type": "bytes32"
        }
      ],
      "name": "Closed",
      "type": "event",
      "signature": "0x7b6ac8bce3193cb9464e9070476bf8926e449f5f743f8c7578eea15265467d79"
    },
    {
      "anonymous": false,
      "inputs": [
        {
          "indexed": true,
          "name": "previousOwner",
          "type": "address"
        },
        {
          "indexed": true,
          "name": "newOwner",
          "type": "address"
        }
      ],
      "name": "OwnershipTransferred",
      "type": "event",
      "signature": "0x8be0079c531659141344cd1fd0a4f28419497f9722a3daafe3b4186f6b6457e0"
    },
    {
      "constant": false,
      "inputs": [
        {
          "name": "borrower",
          "type": "address"
        },
        {
          "name": "amount",
          "type": "uint256"
        }
      ],
      "name": "request",
      "outputs": [],
      "payable": false,
      "stateMutability": "nonpayable",
      "type": "function",
      "signature": "0xc8c01a55"
    },
    {
      "constant": false,
      "inputs": [],
      "name": "depositFund",
      "outputs": [],
      "payable": true,
      "stateMutability": "payable",
      "type": "function",
      "signature": "0x8d0d8cb6"
    },
    {
      "constant": false,
      "inputs": [],
      "name": "refund",
      "outputs": [],
      "payable": true,
      "stateMutability": "payable",
      "type": "function",
      "signature": "0x590e1ae3"
    },
    {
      "constant": false,
      "inputs": [],
      "name": "withdrawToBorrower",
      "outputs": [],
      "payable": true,
      "stateMutability": "payable",
      "type": "function",
      "signature": "0xd38da171"
    },
    {
      "constant": false,
      "inputs": [],
      "name": "repay",
      "outputs": [],
      "payable": true,
      "stateMutability": "payable",
      "type": "function",
      "signature": "0x402d8883"
    },
    {
      "constant": false,
      "inputs": [],
      "name": "withdrawToLenders",
      "outputs": [],
      "payable": true,
      "stateMutability": "payable",
      "type": "function",
      "signature": "0xff1024f1"
    },
    {
      "constant": false,
      "inputs": [],
      "name": "toDefault",
      "outputs": [],
      "payable": false,
      "stateMutability": "nonpayable",
      "type": "function",
      "signature": "0xfa0b0aaa"
    },
    {
      "constant": false,
      "inputs": [],
      "name": "cancel",
      "outputs": [],
      "payable": false,
      "stateMutability": "nonpayable",
      "type": "function",
      "signature": "0xea8a1af0"
    }
  ],
  "bytecode": "0x608060405242600655336000806101000a81548173ffffffffffffffffffffffffffffffffffffffff021916908373ffffffffffffffffffffffffffffffffffffffff1602179055506000809054906101000a900473ffffffffffffffffffffffffffffffffffffffff1673ffffffffffffffffffffffffffffffffffffffff16600073ffffffffffffffffffffffffffffffffffffffff167f8be0079c531659141344cd1fd0a4f28419497f9722a3daafe3b4186f6b6457e060405160405180910390a36000600960006101000a81548160ff02191690836008811115620000e457fe5b021790555062000143600260009054906101000a900473ffffffffffffffffffffffffffffffffffffffff166200012962000156640100000000026401000000009004565b6200017f64010000000002620033c2176401000000009004565b60018190555042600681905550620001c2565b60008060009054906101000a900473ffffffffffffffffffffffffffffffffffffffff16905090565b600080428373ffffffffffffffffffffffffffffffffffffffff168573ffffffffffffffffffffffffffffffffffffffff16030190508060010291505092915050565b61343180620001d26000396000f3fe60806040526004361061013e576000357c0100000000000000000000000000000000000000000000000000000000900463ffffffff168063046f7da21461014357806307da68f51461015a57806307e547981461017157806310919b4f1461019c578063200d2ed214610217578063402d888314610250578063590e1ae31461025a578063715018a614610264578063751d11561461027b5780637df1f1b91461031a57806389946311146103715780638d0d8cb6146103fa5780638da5cb5b146104045780638f32d59b1461045b5780639d585f7f1461048a578063af640d0f146104b5578063b69ef8a8146104e0578063c8c01a551461050b578063d2227acf14610566578063d38da17114610591578063ea8a1af01461059b578063f2fde38b146105b2578063fa0b0aaa14610603578063ff1024f11461061a575b600080fd5b34801561014f57600080fd5b50610158610624565b005b34801561016657600080fd5b5061016f6106ec565b005b34801561017d57600080fd5b506101866107b4565b6040518082815260200191505060405180910390f35b3480156101a857600080fd5b506101d5600480360360208110156101bf57600080fd5b81019080803590602001909291905050506107be565b604051808273ffffffffffffffffffffffffffffffffffffffff1673ffffffffffffffffffffffffffffffffffffffff16815260200191505060405180910390f35b34801561022357600080fd5b5061022c6107fb565b6040518082600881111561023c57fe5b60ff16815260200191505060405180910390f35b610258610812565b005b61026261081c565b005b34801561027057600080fd5b50610279610826565b005b34801561028757600080fd5b506102ca6004803603602081101561029e57600080fd5b81019080803573ffffffffffffffffffffffffffffffffffffffff169060200190929190505050610961565b604051808473ffffffffffffffffffffffffffffffffffffffff1673ffffffffffffffffffffffffffffffffffffffff168152602001838152602001828152602001935050505060405180910390f35b34801561032657600080fd5b5061032f610a93565b604051808273ffffffffffffffffffffffffffffffffffffffff1673ffffffffffffffffffffffffffffffffffffffff16815260200191505060405180910390f35b34801561037d57600080fd5b506103aa6004803603602081101561039457600080fd5b8101908080359060200190929190505050610abd565b604051808473ffffffffffffffffffffffffffffffffffffffff1673ffffffffffffffffffffffffffffffffffffffff168152602001838152602001828152602001935050505060405180910390f35b610402610ae0565b005b34801561041057600080fd5b50610419610aea565b604051808273ffffffffffffffffffffffffffffffffffffffff1673ffffffffffffffffffffffffffffffffffffffff16815260200191505060405180910390f35b34801561046757600080fd5b50610470610b13565b604051808215151515815260200191505060405180910390f35b34801561049657600080fd5b5061049f610b6a565b6040518082815260200191505060405180910390f35b3480156104c157600080fd5b506104ca610b74565b6040518082815260200191505060405180910390f35b3480156104ec57600080fd5b506104f5610b7e565b6040518082815260200191505060405180910390f35b34801561051757600080fd5b506105646004803603604081101561052e57600080fd5b81019080803573ffffffffffffffffffffffffffffffffffffffff16906020019092919080359060200190929190505050610b9d565b005b34801561057257600080fd5b5061057b610bab565b6040518082815260200191505060405180910390f35b610599610bb5565b005b3480156105a757600080fd5b506105b0610c69565b005b3480156105be57600080fd5b50610601600480360360208110156105d557600080fd5b81019080803573ffffffffffffffffffffffffffffffffffffffff169060200190929190505050610c73565b005b34801561060f57600080fd5b50610618610cfb565b005b610622610daf565b005b61062c610b13565b15156106a0576040517f08c379a00000000000000000000000000000000000000000000000000000000081526004018080602001828103825260198152602001807f417574686f72697a656420666f72206f776e6572206f6e6c790000000000000081525060200191505060405180910390fd5b6000600960016101000a81548160ff0219169083151502179055506001547f0f32c8acd3779bbdc4f25017f9d48e6a5d2a6741de679a4059bf2fff7456213c60405160405180910390a2565b6106f4610b13565b1515610768576040517f08c379a00000000000000000000000000000000000000000000000000000000081526004018080602001828103825260198152602001807f417574686f72697a656420666f72206f776e6572206f6e6c790000000000000081525060200191505060405180910390fd5b6001600960016101000a81548160ff0219169083151502179055506001547f1d19fd95a8301a83d3e02da59d47316f37bb99675c57158849e48e8b6d5cd1ba60405160405180910390a2565b6000600454905090565b6000600b600083815260200190815260200160002060009054906101000a900473ffffffffffffffffffffffffffffffffffffffff169050919050565b6000600960009054906101000a900460ff16905090565b61081a610f00565b565b610824611250565b565b61082e610b13565b15156108a2576040517f08c379a00000000000000000000000000000000000000000000000000000000081526004018080602001828103825260198152602001807f417574686f72697a656420666f72206f776e6572206f6e6c790000000000000081525060200191505060405180910390fd5b600073ffffffffffffffffffffffffffffffffffffffff166000809054906101000a900473ffffffffffffffffffffffffffffffffffffffff1673ffffffffffffffffffffffffffffffffffffffff167f8be0079c531659141344cd1fd0a4f28419497f9722a3daafe3b4186f6b6457e060405160405180910390a360008060006101000a81548173ffffffffffffffffffffffffffffffffffffffff021916908373ffffffffffffffffffffffffffffffffffffffff160217905550565b60008060008073ffffffffffffffffffffffffffffffffffffffff168473ffffffffffffffffffffffffffffffffffffffff1614156109b3576000806000829250819150809050925092509250610a8c565b6109bb61338a565b600a60008673ffffffffffffffffffffffffffffffffffffffff1673ffffffffffffffffffffffffffffffffffffffff168152602001908152602001600020606060405190810160405290816000820160009054906101000a900473ffffffffffffffffffffffffffffffffffffffff1673ffffffffffffffffffffffffffffffffffffffff1673ffffffffffffffffffffffffffffffffffffffff168152602001600182015481526020016002820154815250509050806000015181602001518260400151829250935093509350505b9193909250565b6000600260009054906101000a900473ffffffffffffffffffffffffffffffffffffffff16905090565b6000806000610ad3610ace856107be565b610961565b9250925092509193909250565b610ae8611823565b565b60008060009054906101000a900473ffffffffffffffffffffffffffffffffffffffff16905090565b60008060009054906101000a900473ffffffffffffffffffffffffffffffffffffffff1673ffffffffffffffffffffffffffffffffffffffff163373ffffffffffffffffffffffffffffffffffffffff1614905090565b6000600354905090565b6000600154905090565b60003073ffffffffffffffffffffffffffffffffffffffff1631905090565b610ba78282611fb1565b5050565b6000600554905090565b610bc56201518060075401612357565b1515610c5f576040517f08c379a000000000000000000000000000000000000000000000000000000000815260040180806020018281038252602b8152602001807f417574686f72697a6564206f6e6c79206166746572203120646179206f66206681526020017f756c6c792066756e64656400000000000000000000000000000000000000000081525060400191505060405180910390fd5b610c67612364565b565b610c716126cd565b565b610c7b610b13565b1515610cef576040517f08c379a00000000000000000000000000000000000000000000000000000000081526004018080602001828103825260198152602001807f417574686f72697a656420666f72206f776e6572206f6e6c790000000000000081525060200191505060405180910390fd5b610cf8816129e8565b50565b610d0b6206978060065401612357565b1515610da5576040517f08c379a000000000000000000000000000000000000000000000000000000000815260040180806020018281038252602d8152602001807f417574686f72697a6564206f6e6c7920616674657220636f6e7472616374206381526020017f726561746564203520646179730000000000000000000000000000000000000081525060400191505060405180910390fd5b610dad612ae2565b565b60046008811115610dbc57fe5b600960009054906101000a900460ff166008811115610dd757fe5b141515610e4c576040517f08c379a000000000000000000000000000000000000000000000000000000000815260040180806020018281038252601a8152602001807f5374617475732073686f756c6420626520696e2052657061696400000000000081525060200191505060405180910390fd5b610e5c6202a30060085401612357565b1515610ef6576040517f08c379a00000000000000000000000000000000000000000000000000000000081526004018080602001828103825260248152602001807f417574686f72697a6564206f6e6c79206166746572203220646179206f66207281526020017f657061790000000000000000000000000000000000000000000000000000000081525060400191505060405180910390fd5b610efe612e24565b565b60036008811115610f0d57fe5b600960009054906101000a900460ff166008811115610f2857fe5b141515610f9d576040517f08c379a00000000000000000000000000000000000000000000000000000000081526004018080602001828103825260198152602001807f5265717569726564205374617475733a2057697468647261770000000000000081525060200191505060405180910390fd5b60011515600960019054906101000a900460ff16151514151515611075576040517f08c379a00000000000000000000000000000000000000000000000000000000081526004018080602001828103825260548152602001807f546865207374617465206f662074686520636f6e74726163742069732073746f81526020017f7070656420627920746865206f776e65722c206e6f206f7065726174696f6e7381526020017f20616c6c6f7720617420746869732074696d652e00000000000000000000000081525060600191505060405180910390fd5b600260009054906101000a900473ffffffffffffffffffffffffffffffffffffffff1673ffffffffffffffffffffffffffffffffffffffff163373ffffffffffffffffffffffffffffffffffffffff1614151561113a576040517f08c379a000000000000000000000000000000000000000000000000000000000815260040180806020018281038252601d8152602001807f417574686f72697a656420666f7220626f72726f776572206f6e6c792e00000081525060200191505060405180910390fd5b600454341415156111d9576040517f08c379a000000000000000000000000000000000000000000000000000000000815260040180806020018281038252602b8152602001807f52657061696420616d6f756e74206e6f74207468652073616d6520617320616d81526020017f6f756e74206f776e65642e00000000000000000000000000000000000000000081525060400191505060405180910390fd5b346004600082825403925050819055506004600960006101000a81548160ff0219169083600881111561120857fe5b0217905550426008819055506001547f7386151a988d74496e6fc96f665998a762fa92fc6693880496a4d6785b2fdd23346040518082815260200191505060405180910390a2565b6001600881111561125d57fe5b600960009054906101000a900460ff16600881111561127857fe5b14806112a957506002600881111561128c57fe5b600960009054906101000a900460ff1660088111156112a757fe5b145b1515611343576040517f08c379a00000000000000000000000000000000000000000000000000000000081526004018080602001828103825260228152602001807f5265717569726564205374617475733a2046756e64696e67206f722046756e6481526020017f656400000000000000000000000000000000000000000000000000000000000081525060400191505060405180910390fd5b60011515600960019054906101000a900460ff1615151415151561141b576040517f08c379a00000000000000000000000000000000000000000000000000000000081526004018080602001828103825260548152602001807f546865207374617465206f662074686520636f6e74726163742069732073746f81526020017f7070656420627920746865206f776e65722c206e6f206f7065726174696f6e7381526020017f20616c6c6f7720617420746869732074696d652e00000000000000000000000081525060600191505060405180910390fd5b611423610b13565b1515611497576040517f08c379a00000000000000000000000000000000000000000000000000000000081526004018080602001828103825260198152602001807f417574686f72697a656420666f72206f776e6572206f6e6c790000000000000081525060200191505060405180910390fd5b61149f610b7e565b60045414151561153d576040517f08c379a000000000000000000000000000000000000000000000000000000000815260040180806020018281038252602c8152602001807f42616c616e6365206973206e6f7420656e6f75676820746f20726566756e642081526020017f616c6c206c656e646572732e000000000000000000000000000000000000000081525060400191505060405180910390fd5b60008090505b6005548110156117f45761155561338a565b600a6000600b600085815260200190815260200160002060009054906101000a900473ffffffffffffffffffffffffffffffffffffffff1673ffffffffffffffffffffffffffffffffffffffff1673ffffffffffffffffffffffffffffffffffffffff168152602001908152602001600020606060405190810160405290816000820160009054906101000a900473ffffffffffffffffffffffffffffffffffffffff1673ffffffffffffffffffffffffffffffffffffffff1673ffffffffffffffffffffffffffffffffffffffff168152602001600182015481526020016002820154815250509050600073ffffffffffffffffffffffffffffffffffffffff16816000015173ffffffffffffffffffffffffffffffffffffffff161415156117e657600081602001519050600082600001519050600a6000600b600087815260200190815260200160002060009054906101000a900473ffffffffffffffffffffffffffffffffffffffff1673ffffffffffffffffffffffffffffffffffffffff1673ffffffffffffffffffffffffffffffffffffffff168152602001908152602001600020600080820160006101000a81549073ffffffffffffffffffffffffffffffffffffffff021916905560018201600090556002820160009055505081600460008282540392505081905550826000015173ffffffffffffffffffffffffffffffffffffffff166108fc839081150290604051600060405180830381858888f19350505050158015611791573d6000803e3d6000fd5b508073ffffffffffffffffffffffffffffffffffffffff166001547ff552ca82e113ac3c539c3d617f29fcd19c172a0c75dad017555c9e109f7fe183846040518082815260200191505060405180910390a350505b508080600101915050611543565b5060006005819055506006600960006101000a81548160ff0219169083600881111561181c57fe5b0217905550565b6001600881111561183057fe5b600960009054906101000a900460ff16600881111561184b57fe5b1415156118c0576040517f08c379a00000000000000000000000000000000000000000000000000000000081526004018080602001828103825260188152602001807f5265717569726564205374617475733a2046756e64696e67000000000000000081525060200191505060405180910390fd5b60011515600960019054906101000a900460ff16151514151515611998576040517f08c379a00000000000000000000000000000000000000000000000000000000081526004018080602001828103825260548152602001807f546865207374617465206f662074686520636f6e74726163742069732073746f81526020017f7070656420627920746865206f776e65722c206e6f206f7065726174696f6e7381526020017f20616c6c6f7720617420746869732074696d652e00000000000000000000000081525060600191505060405180910390fd5b6003543411151515611a38576040517f08c379a000000000000000000000000000000000000000000000000000000000815260040180806020018281038252602c8152602001807f4c656e64696e6720616d6f756e74206973206d6f72652074686520616d6f756e81526020017f74207265717565737465642e000000000000000000000000000000000000000081525060400191505060405180910390fd5b600454600354033411151515611adc576040517f08c379a00000000000000000000000000000000000000000000000000000000081526004018080602001828103825260328152602001807f4c656e64696e6720616d6f756e74206973206d6f7265207468616e2072656d6181526020017f696e696e672066756e64206e65656465642e000000000000000000000000000081525060400191505060405180910390fd5b600073ffffffffffffffffffffffffffffffffffffffff16600a60003373ffffffffffffffffffffffffffffffffffffffff1673ffffffffffffffffffffffffffffffffffffffff16815260200190815260200160002060000160009054906101000a900473ffffffffffffffffffffffffffffffffffffffff1673ffffffffffffffffffffffffffffffffffffffff16141515611be2576040517f08c379a00000000000000000000000000000000000000000000000000000000081526004018080602001828103825260108152602001807f4578697374696e67206c656e6465722e0000000000000000000000000000000081525060200191505060405180910390fd5b611bea610aea565b73ffffffffffffffffffffffffffffffffffffffff163373ffffffffffffffffffffffffffffffffffffffff1614151515611cb3576040517f08c379a000000000000000000000000000000000000000000000000000000000815260040180806020018281038252602d8152602001807f4f776e65722063616e27742062652061206c656e64657220696e20746865207381526020017f616d6520636f6e74726163742e0000000000000000000000000000000000000081525060400191505060405180910390fd5b600260009054906101000a900473ffffffffffffffffffffffffffffffffffffffff1673ffffffffffffffffffffffffffffffffffffffff163373ffffffffffffffffffffffffffffffffffffffff1614151515611d9f576040517f08c379a00000000000000000000000000000000000000000000000000000000081526004018080602001828103825260308152602001807f426f72726f7765722063616e27742062652061206c656e64657220696e20746881526020017f652073616d6520636f6e74726163742e0000000000000000000000000000000081525060400191505060405180910390fd5b6060604051908101604052803373ffffffffffffffffffffffffffffffffffffffff1681526020013481526020016000815250600a60003373ffffffffffffffffffffffffffffffffffffffff1673ffffffffffffffffffffffffffffffffffffffff16815260200190815260200160002060008201518160000160006101000a81548173ffffffffffffffffffffffffffffffffffffffff021916908373ffffffffffffffffffffffffffffffffffffffff160217905550602082015181600101556040820151816002015590505033600b6000600554815260200190815260200160002060006101000a81548173ffffffffffffffffffffffffffffffffffffffff021916908373ffffffffffffffffffffffffffffffffffffffff160217905550600560008154809291906001019190505550346004600082825401925050819055503373ffffffffffffffffffffffffffffffffffffffff166001547f567ee2fe3df8d4438b27a9f7d5fe1b33f94acd2c68f6a23dde69751fde18e12a346040518082815260200191505060405180910390a3600354611f41610b7e565b1415611faf576002600960006101000a81548160ff02191690836008811115611f6657fe5b0217905550426007819055506001547f9f4592c3bd42bd33860ee93dc92d07f06e3f4fb6e19a9ca214982fe7c1bdb0376003546040518082815260200191505060405180910390a25b565b611fb9610b13565b151561202d576040517f08c379a00000000000000000000000000000000000000000000000000000000081526004018080602001828103825260198152602001807f417574686f72697a656420666f72206f776e6572206f6e6c790000000000000081525060200191505060405180910390fd5b600073ffffffffffffffffffffffffffffffffffffffff168273ffffffffffffffffffffffffffffffffffffffff16141515156120d2576040517f08c379a00000000000000000000000000000000000000000000000000000000081526004018080602001828103825260108152602001807f4164647265737320697320656d7074790000000000000000000000000000000081525060200191505060405180910390fd5b6120da610aea565b73ffffffffffffffffffffffffffffffffffffffff168273ffffffffffffffffffffffffffffffffffffffff16141515156121a3576040517f08c379a00000000000000000000000000000000000000000000000000000000081526004018080602001828103825260298152602001807f4f776e65722063616e277420626520626f72726f77657220617420746865207381526020017f616d652074696d652e000000000000000000000000000000000000000000000081525060400191505060405180910390fd5b600081111515612241576040517f08c379a00000000000000000000000000000000000000000000000000000000081526004018080602001828103825260228152602001807f30206973206e6f7420612076616c696420626f72726f77696e6720616d6f756e81526020017f742e00000000000000000000000000000000000000000000000000000000000081525060400191505060405180910390fd5b81600260006101000a81548173ffffffffffffffffffffffffffffffffffffffff021916908373ffffffffffffffffffffffffffffffffffffffff160217905550806003819055506001600960006101000a81548160ff021916908360088111156122a857fe5b0217905550600260009054906101000a900473ffffffffffffffffffffffffffffffffffffffff1673ffffffffffffffffffffffffffffffffffffffff166001547f432cddca824392e0d67c28ed9c59e94789e1ecd6e170847a54ba420468b097f3612312610aea565b604051808273ffffffffffffffffffffffffffffffffffffffff1673ffffffffffffffffffffffffffffffffffffffff16815260200191505060405180910390a35050565b6000814210159050919050565b6002600881111561237157fe5b600960009054906101000a900460ff16600881111561238c57fe5b141515612401576040517f08c379a00000000000000000000000000000000000000000000000000000000081526004018080602001828103825260178152602001807f5265717569726564205374617475733a2046756e64656400000000000000000081525060200191505060405180910390fd5b60011515600960019054906101000a900460ff161515141515156124d9576040517f08c379a00000000000000000000000000000000000000000000000000000000081526004018080602001828103825260548152602001807f546865207374617465206f662074686520636f6e74726163742069732073746f81526020017f7070656420627920746865206f776e65722c206e6f206f7065726174696f6e7381526020017f20616c6c6f7720617420746869732074696d652e00000000000000000000000081525060600191505060405180910390fd5b600260009054906101000a900473ffffffffffffffffffffffffffffffffffffffff1673ffffffffffffffffffffffffffffffffffffffff163373ffffffffffffffffffffffffffffffffffffffff1614151561259e576040517f08c379a000000000000000000000000000000000000000000000000000000000815260040180806020018281038252601d8152602001807f417574686f72697a656420666f7220626f72726f776572206f6e6c792e00000081525060200191505060405180910390fd5b60006125a8610b7e565b11151561261d576040517f08c379a000000000000000000000000000000000000000000000000000000000815260040180806020018281038252601b8152602001807f5468652062616c616e636520697320302063757272656e746c792e000000000081525060200191505060405180910390fd5b6003600960006101000a81548160ff0219169083600881111561263c57fe5b02179055503373ffffffffffffffffffffffffffffffffffffffff166108fc612663610b7e565b9081150290604051600060405180830381858888f1935050505015801561268e573d6000803e3d6000fd5b506001547fa3b20715ecbfc0df1fd9080734769d9acd91e86de1cbd3625392170cdcfd6f146004546040518082815260200191505060405180910390a2565b60011515600960019054906101000a900460ff161515141515156127a5576040517f08c379a00000000000000000000000000000000000000000000000000000000081526004018080602001828103825260548152602001807f546865207374617465206f662074686520636f6e74726163742069732073746f81526020017f7070656420627920746865206f776e65722c206e6f206f7065726174696f6e7381526020017f20616c6c6f7720617420746869732074696d652e00000000000000000000000081525060600191505060405180910390fd5b600260009054906101000a900473ffffffffffffffffffffffffffffffffffffffff1673ffffffffffffffffffffffffffffffffffffffff163373ffffffffffffffffffffffffffffffffffffffff1614806128335750612804610aea565b73ffffffffffffffffffffffffffffffffffffffff163373ffffffffffffffffffffffffffffffffffffffff16145b15156128cd576040517f08c379a00000000000000000000000000000000000000000000000000000000081526004018080602001828103825260268152602001807f417574686f72697a656420666f7220626f72726f776572206f72206f776e657281526020017f206f6e6c792e000000000000000000000000000000000000000000000000000081525060400191505060405180910390fd5b6000600554141515612993576040517f08c379a000000000000000000000000000000000000000000000000000000000815260040180806020018281038252605b8152602001807f43616e27742063616e63656c6c656420636f6e7472616374207768656e20667581526020017f6e642069732070726f76696465642e2046756e64206e65656420746f2062652081526020017f72657475726e206669727374206265666f72652063616e63656c2e000000000081525060600191505060405180910390fd5b6007600960006101000a81548160ff021916908360088111156129b257fe5b02179055506001547fbaa1eb22f2a492ba1a5fea61b8df4d27c6c8b5f3971e63bb58fa14ff72eedb7060405160405180910390a2565b600073ffffffffffffffffffffffffffffffffffffffff168173ffffffffffffffffffffffffffffffffffffffff1614151515612a2457600080fd5b8073ffffffffffffffffffffffffffffffffffffffff166000809054906101000a900473ffffffffffffffffffffffffffffffffffffffff1673ffffffffffffffffffffffffffffffffffffffff167f8be0079c531659141344cd1fd0a4f28419497f9722a3daafe3b4186f6b6457e060405160405180910390a3806000806101000a81548173ffffffffffffffffffffffffffffffffffffffff021916908373ffffffffffffffffffffffffffffffffffffffff16021790555050565b60036008811115612aef57fe5b600960009054906101000a900460ff166008811115612b0a57fe5b141515612b7f576040517f08c379a00000000000000000000000000000000000000000000000000000000081526004018080602001828103825260198152602001807f5265717569726564205374617475733a2057697468647261770000000000000081525060200191505060405180910390fd5b60011515600960019054906101000a900460ff16151514151515612c57576040517f08c379a00000000000000000000000000000000000000000000000000000000081526004018080602001828103825260548152602001807f546865207374617465206f662074686520636f6e74726163742069732073746f81526020017f7070656420627920746865206f776e65722c206e6f206f7065726174696f6e7381526020017f20616c6c6f7720617420746869732074696d652e00000000000000000000000081525060600191505060405180910390fd5b600260009054906101000a900473ffffffffffffffffffffffffffffffffffffffff1673ffffffffffffffffffffffffffffffffffffffff163373ffffffffffffffffffffffffffffffffffffffff161480612ce55750612cb6610aea565b73ffffffffffffffffffffffffffffffffffffffff163373ffffffffffffffffffffffffffffffffffffffff16145b1515612d7f576040517f08c379a00000000000000000000000000000000000000000000000000000000081526004018080602001828103825260268152602001807f417574686f72697a656420666f7220626f72726f776572206f72206f776e657281526020017f206f6e6c792e000000000000000000000000000000000000000000000000000081525060400191505060405180910390fd5b6005600960006101000a81548160ff02191690836008811115612d9e57fe5b0217905550600260009054906101000a900473ffffffffffffffffffffffffffffffffffffffff1673ffffffffffffffffffffffffffffffffffffffff166001547f21382a74b434572c04970aea2623b00513ab62f964d9f8bca396d9e28a2c9f32600454600354604051808381526020018281526020019250505060405180910390a3565b60046008811115612e3157fe5b600960009054906101000a900460ff166008811115612e4c57fe5b141515612ec1576040517f08c379a00000000000000000000000000000000000000000000000000000000081526004018080602001828103825260178152602001807f5265717569726564205374617475733a2052657061696400000000000000000081525060200191505060405180910390fd5b60011515600960019054906101000a900460ff16151514151515612f99576040517f08c379a00000000000000000000000000000000000000000000000000000000081526004018080602001828103825260548152602001807f546865207374617465206f662074686520636f6e74726163742069732073746f81526020017f7070656420627920746865206f776e65722c206e6f206f7065726174696f6e7381526020017f20616c6c6f7720617420746869732074696d652e00000000000000000000000081525060600191505060405180910390fd5b612fa1610b13565b1515613015576040517f08c379a00000000000000000000000000000000000000000000000000000000081526004018080602001828103825260198152602001807f417574686f72697a656420666f72206f776e6572206f6e6c790000000000000081525060200191505060405180910390fd5b61301d610b7e565b6003541415156130bb576040517f08c379a000000000000000000000000000000000000000000000000000000000815260040180806020018281038252602c8152602001807f42616c616e6365206973206e6f7420656e6f75676820746f20726566756e642081526020017f616c6c206c656e646572732e000000000000000000000000000000000000000081525060400191505060405180910390fd5b60008090505b600554811015613334576130d361338a565b600a6000600b600085815260200190815260200160002060009054906101000a900473ffffffffffffffffffffffffffffffffffffffff1673ffffffffffffffffffffffffffffffffffffffff1673ffffffffffffffffffffffffffffffffffffffff168152602001908152602001600020606060405190810160405290816000820160009054906101000a900473ffffffffffffffffffffffffffffffffffffffff1673ffffffffffffffffffffffffffffffffffffffff1673ffffffffffffffffffffffffffffffffffffffff168152602001600182015481526020016002820154815250509050600073ffffffffffffffffffffffffffffffffffffffff16816000015173ffffffffffffffffffffffffffffffffffffffff1614151561332657806020015181604001818152505080600a6000600b600086815260200190815260200160002060009054906101000a900473ffffffffffffffffffffffffffffffffffffffff1673ffffffffffffffffffffffffffffffffffffffff1673ffffffffffffffffffffffffffffffffffffffff16815260200190815260200160002060008201518160000160006101000a81548173ffffffffffffffffffffffffffffffffffffffff021916908373ffffffffffffffffffffffffffffffffffffffff1602179055506020820151816001015560408201518160020155905050806000015173ffffffffffffffffffffffffffffffffffffffff166108fc82604001519081150290604051600060405180830381858888f19350505050158015613324573d6000803e3d6000fd5b505b5080806001019150506130c1565b506008600960006101000a81548160ff0219169083600881111561335457fe5b02179055506001547f7b6ac8bce3193cb9464e9070476bf8926e449f5f743f8c7578eea15265467d7960405160405180910390a2565b606060405190810160405280600073ffffffffffffffffffffffffffffffffffffffff16815260200160008152602001600081525090565b600080428373ffffffffffffffffffffffffffffffffffffffff168573ffffffffffffffffffffffffffffffffffffffff1603019050806001029150509291505056fea165627a7a723058208f30df40835fbf32e25143f1b8afa2900a05b849642796fde069d81911721e7e0029",
  "source": "pragma solidity ^0.5.0;\n\nimport \"./SimpleLoan.sol\";\n\n/**\n * @title Time Secured Simple Loan\n * @notice Time secured loan inherit simple loan but with time protected modifier on the withdrawToBorrower\n * and withdrawToLenders so the fund can't transfer out from the contract account until the waiting period reached.\n * @dev This contract is created out of demonstrate one of the security best practices of writing solidty contract \n * and also a different test cases is written specifically for it.\n */\ncontract TimeSecuredLoan is SimpleLoan {\n\n    // Modifiers\n    modifier onlyFullyFundedAfterOneDay { \n        require(onlyAfter(_fullyFundedTime + 1 days), \"Authorized only after 1 day of fully funded\"); \n        _; \n    \n    }\n    \n    modifier onlyRepayAfterTwoDay { \n        require(_status == Status.Repaid, \"Status should be in Repaid\");\n        require(onlyAfter(_repaidTime + 2 days), \"Authorized only after 2 day of repay\"); \n        _; \n    }\n\n    modifier onlyCreatedAfterFiveDay { \n        require(onlyAfter(_creationTime + 5 days), \"Authorized only after contract created 5 days\"); \n        _; \n    }\n\n    /**\n     * @notice Setup the loan request with the borrower address and the loan amount\n     * @dev only the owner (or the loan broker in this case) can setup the borrowing info.\n     */\n    function request(address borrower, uint amount) public {\n        super.request(borrower, amount);\n    }\n\n    /**\n     * @notice Deposit fund to the contract balance\n     * @dev Anyone other than the owner and borrower in this case.\n     */\n    function depositFund() public payable {\n        super.depositFund();\n    }\n\n    /**\n     * @notice Return the deposit fund to lender\n     * @dev It can only refund when the borrower hasn't withdrawn the fund. Only owner (contract brodker) can\n     * execute the refund.\n     */\n    function refund() public payable {\n        super.refund();\n    }\n    \n    /**\n     * @notice Withdrawing the fund deposited by the lender to borrower account.\n     * @dev The withdraw only allow after 1 day of the loan is fully funded.\n     */\n    function withdrawToBorrower() public payable onlyFullyFundedAfterOneDay {\n        super.withdrawToBorrower();\n    }\n\n    /**\n     * @notice borrower repay the loan amount to the contract address\n     */\n    function repay() public payable {\n        super.repay();\n    }\n\n    /**\n     * @notice Widthdraw fund from contract balance back to lender according to the loan amount\n     * @dev The withdraw only allow after 2 day of the loan is fully repaid.\n     */\n    function withdrawToLenders() public payable onlyRepayAfterTwoDay {\n        super.withdrawToLenders();\n    }\n    \n    /**\n     * @notice default the loan\n     */\n    function toDefault() public onlyCreatedAfterFiveDay {\n        super.toDefault();\n    }\n    \n    /**\n     * @notice to cancel the loan\n     */\n    function cancel() public {\n        super.cancel();\n    }\n\n    /// Internal functions\n\n    /**\n     * @notice validate current time is greater or equal to given time.\n     * @param _time  time in unix epock\n     * @return true if now is greater or equal to given time\n     */\n    function onlyAfter(uint _time) internal view returns(bool) { \n        return now >= _time; \n    }\n}",
  "sourcePath": "/Users/furydev/consensysdev/simple-loan/contracts/TimeSecuredLoan.sol",
  "compiler": {
    "name": "solc",
    "version": "0.5.0+commit.1d4f565a.Emscripten.clang"
  },
  "schemaVersion": "3.0.1",
  "updatedAt": "2019-01-23T11:20:48.759Z",
  "devdoc": {
    "details": "This contract is created out of demonstrate one of the security best practices of writing solidty contract  and also a different test cases is written specifically for it.",
    "methods": {
      "balance()": {
        "details": "getter for contract's balance",
        "return": "current balance of the contract"
      },
      "borrower()": {
        "details": "getter for borrower",
        "return": "borrower address."
      },
      "depositFund()": {
        "details": "Anyone other than the owner and borrower in this case."
      },
      "id()": {
        "details": "getter function for loan id",
        "return": "loan ID in string"
      },
      "isOwner()": {
        "return": "true if `msg.sender` is the owner of the contract."
      },
      "lenderAddressAt(uint256)": {
        "details": "helper function to get lender address by index",
        "params": {
          "idx": "position index"
        },
        "return": "lender address"
      },
      "lenderAt(uint256)": {
        "details": "helper function to get lender from the mapping",
        "params": {
          "idx": "the index position in lender address mapping"
        },
        "return": "a lender info in tuples"
      },
      "lenderBy(address)": {
        "details": "helper function to get lender by its address",
        "params": {
          "addr": "lender address"
        },
        "return": "lender's address, lending amount, and repaid amount in tuples."
      },
      "lenderCount()": {
        "details": "getter for lender counter",
        "return": "number of lenders for this contract"
      },
      "loanAmount()": {
        "details": "getter for loan amount",
        "return": "the loan amount requested by the borrower"
      },
      "ownedAmount()": {
        "details": "getter for owned amount",
        "return": "the amount withdraw by the borrower"
      },
      "owner()": {
        "return": "the address of the owner."
      },
      "refund()": {
        "details": "It can only refund when the borrower hasn't withdrawn the fund. Only owner (contract brodker) can execute the refund."
      },
      "renounceOwnership()": {
        "details": "Allows the current owner to relinquish control of the contract."
      },
      "request(address,uint256)": {
        "details": "only the owner (or the loan broker in this case) can setup the borrowing info."
      },
      "resume()": {
        "details": "only only can execute this function"
      },
      "status()": {
        "details": "getter for status",
        "return": "current status according to the loan lifecycle"
      },
      "stop()": {
        "details": "only owner can execute this function."
      },
      "transferOwnership(address)": {
        "details": "Allows the current owner to transfer control of the contract to a newOwner.",
        "params": {
          "newOwner": "The address to transfer ownership to."
        }
      },
      "withdrawToBorrower()": {
        "details": "The withdraw only allow after 1 day of the loan is fully funded."
      },
      "withdrawToLenders()": {
        "details": "The withdraw only allow after 2 day of the loan is fully repaid."
      }
    },
    "title": "Time Secured Simple Loan"
  },
  "userdoc": {
    "methods": {
      "cancel()": {
        "notice": "to cancel the loan"
      },
      "depositFund()": {
        "notice": "Deposit fund to the contract balance"
      },
      "refund()": {
        "notice": "Return the deposit fund to lender"
      },
      "renounceOwnership()": {
        "notice": "Renouncing to ownership will leave the contract without an owner. It will not be possible to call the functions with the `onlyOwner` modifier anymore."
      },
      "repay()": {
        "notice": "borrower repay the loan amount to the contract address"
      },
      "request(address,uint256)": {
        "notice": "Setup the loan request with the borrower address and the loan amount"
      },
      "resume()": {
        "notice": "Take the contract out of suspend state."
      },
      "stop()": {
        "notice": "Put the contract in suspend state in the even or ermegency"
      },
      "toDefault()": {
        "notice": "default the loan"
      },
      "withdrawToBorrower()": {
        "notice": "Withdrawing the fund deposited by the lender to borrower account."
      },
      "withdrawToLenders()": {
        "notice": "Widthdraw fund from contract balance back to lender according to the loan amount"
      }
    },
    "notice": "Time secured loan inherit simple loan but with time protected modifier on the withdrawToBorrower and withdrawToLenders so the fund can't transfer out from the contract account until the waiting period reached."
  }
}