{
  "contractName": "TimeSecuredLoan",
  "abi": [
    {
      "constant": false,
      "inputs": [],
      "name": "resume",
      "outputs": [],
      "payable": false,
      "stateMutability": "nonpayable",
      "type": "function",
      "signature": "0x046f7da2"
    },
    {
      "constant": false,
      "inputs": [],
      "name": "stop",
      "outputs": [],
      "payable": false,
      "stateMutability": "nonpayable",
      "type": "function",
      "signature": "0x07da68f5"
    },
    {
      "constant": true,
      "inputs": [],
      "name": "ownedAmount",
      "outputs": [
        {
          "name": "",
          "type": "uint256"
        }
      ],
      "payable": false,
      "stateMutability": "view",
      "type": "function",
      "signature": "0x07e54798"
    },
    {
      "constant": true,
      "inputs": [
        {
          "name": "idx",
          "type": "uint256"
        }
      ],
      "name": "lenderAddressAt",
      "outputs": [
        {
          "name": "",
          "type": "address"
        }
      ],
      "payable": false,
      "stateMutability": "view",
      "type": "function",
      "signature": "0x10919b4f"
    },
    {
      "constant": true,
      "inputs": [],
      "name": "status",
      "outputs": [
        {
          "name": "",
          "type": "uint8"
        }
      ],
      "payable": false,
      "stateMutability": "view",
      "type": "function",
      "signature": "0x200d2ed2"
    },
    {
      "constant": true,
      "inputs": [],
      "name": "info",
      "outputs": [
        {
          "name": "p_id",
          "type": "bytes32"
        },
        {
          "name": "p_status",
          "type": "uint8"
        },
        {
          "name": "p_balance",
          "type": "uint256"
        },
        {
          "name": "p_loanAmount",
          "type": "uint256"
        },
        {
          "name": "p_ownedAmount",
          "type": "uint256"
        },
        {
          "name": "p_borrower",
          "type": "address"
        },
        {
          "name": "p_owner",
          "type": "address"
        },
        {
          "name": "p_lenderCount",
          "type": "uint256"
        }
      ],
      "payable": false,
      "stateMutability": "view",
      "type": "function",
      "signature": "0x370158ea"
    },
    {
      "constant": false,
      "inputs": [],
      "name": "renounceOwnership",
      "outputs": [],
      "payable": false,
      "stateMutability": "nonpayable",
      "type": "function",
      "signature": "0x715018a6"
    },
    {
      "constant": true,
      "inputs": [
        {
          "name": "addr",
          "type": "address"
        }
      ],
      "name": "lenderBy",
      "outputs": [
        {
          "name": "",
          "type": "address"
        },
        {
          "name": "",
          "type": "uint256"
        },
        {
          "name": "",
          "type": "uint256"
        },
        {
          "name": "",
          "type": "uint256"
        }
      ],
      "payable": false,
      "stateMutability": "view",
      "type": "function",
      "signature": "0x751d1156"
    },
    {
      "constant": true,
      "inputs": [],
      "name": "borrower",
      "outputs": [
        {
          "name": "",
          "type": "address"
        }
      ],
      "payable": false,
      "stateMutability": "view",
      "type": "function",
      "signature": "0x7df1f1b9"
    },
    {
      "constant": true,
      "inputs": [
        {
          "name": "idx",
          "type": "uint256"
        }
      ],
      "name": "lenderAt",
      "outputs": [
        {
          "name": "",
          "type": "address"
        },
        {
          "name": "",
          "type": "uint256"
        },
        {
          "name": "",
          "type": "uint256"
        },
        {
          "name": "",
          "type": "uint256"
        }
      ],
      "payable": false,
      "stateMutability": "view",
      "type": "function",
      "signature": "0x89946311"
    },
    {
      "constant": true,
      "inputs": [],
      "name": "owner",
      "outputs": [
        {
          "name": "",
          "type": "address"
        }
      ],
      "payable": false,
      "stateMutability": "view",
      "type": "function",
      "signature": "0x8da5cb5b"
    },
    {
      "constant": true,
      "inputs": [],
      "name": "isOwner",
      "outputs": [
        {
          "name": "",
          "type": "bool"
        }
      ],
      "payable": false,
      "stateMutability": "view",
      "type": "function",
      "signature": "0x8f32d59b"
    },
    {
      "constant": true,
      "inputs": [],
      "name": "loanAmount",
      "outputs": [
        {
          "name": "",
          "type": "uint256"
        }
      ],
      "payable": false,
      "stateMutability": "view",
      "type": "function",
      "signature": "0x9d585f7f"
    },
    {
      "constant": true,
      "inputs": [],
      "name": "id",
      "outputs": [
        {
          "name": "",
          "type": "bytes32"
        }
      ],
      "payable": false,
      "stateMutability": "view",
      "type": "function",
      "signature": "0xaf640d0f"
    },
    {
      "constant": true,
      "inputs": [],
      "name": "balance",
      "outputs": [
        {
          "name": "",
          "type": "uint256"
        }
      ],
      "payable": false,
      "stateMutability": "view",
      "type": "function",
      "signature": "0xb69ef8a8"
    },
    {
      "constant": true,
      "inputs": [],
      "name": "lenderCount",
      "outputs": [
        {
          "name": "",
          "type": "uint256"
        }
      ],
      "payable": false,
      "stateMutability": "view",
      "type": "function",
      "signature": "0xd2227acf"
    },
    {
      "constant": false,
      "inputs": [
        {
          "name": "newOwner",
          "type": "address"
        }
      ],
      "name": "transferOwnership",
      "outputs": [],
      "payable": false,
      "stateMutability": "nonpayable",
      "type": "function",
      "signature": "0xf2fde38b"
    },
    {
      "anonymous": false,
      "inputs": [
        {
          "indexed": true,
          "name": "loanId",
          "type": "bytes32"
        },
        {
          "indexed": true,
          "name": "borrower",
          "type": "address"
        },
        {
          "indexed": false,
          "name": "owner",
          "type": "address"
        }
      ],
      "name": "Requesting",
      "type": "event",
      "signature": "0x432cddca824392e0d67c28ed9c59e94789e1ecd6e170847a54ba420468b097f3"
    },
    {
      "anonymous": false,
      "inputs": [
        {
          "indexed": true,
          "name": "loanId",
          "type": "bytes32"
        },
        {
          "indexed": true,
          "name": "lender",
          "type": "address"
        },
        {
          "indexed": false,
          "name": "amount",
          "type": "uint256"
        }
      ],
      "name": "Funding",
      "type": "event",
      "signature": "0x567ee2fe3df8d4438b27a9f7d5fe1b33f94acd2c68f6a23dde69751fde18e12a"
    },
    {
      "anonymous": false,
      "inputs": [
        {
          "indexed": true,
          "name": "loanId",
          "type": "bytes32"
        },
        {
          "indexed": false,
          "name": "amount",
          "type": "uint256"
        }
      ],
      "name": "Funded",
      "type": "event",
      "signature": "0x9f4592c3bd42bd33860ee93dc92d07f06e3f4fb6e19a9ca214982fe7c1bdb037"
    },
    {
      "anonymous": false,
      "inputs": [
        {
          "indexed": true,
          "name": "loanId",
          "type": "bytes32"
        },
        {
          "indexed": false,
          "name": "amount",
          "type": "uint256"
        }
      ],
      "name": "FundWithdrawn",
      "type": "event",
      "signature": "0xa3b20715ecbfc0df1fd9080734769d9acd91e86de1cbd3625392170cdcfd6f14"
    },
    {
      "anonymous": false,
      "inputs": [
        {
          "indexed": true,
          "name": "loanId",
          "type": "bytes32"
        },
        {
          "indexed": false,
          "name": "amount",
          "type": "uint256"
        }
      ],
      "name": "Repaid",
      "type": "event",
      "signature": "0x7386151a988d74496e6fc96f665998a762fa92fc6693880496a4d6785b2fdd23"
    },
    {
      "anonymous": false,
      "inputs": [
        {
          "indexed": true,
          "name": "loanId",
          "type": "bytes32"
        },
        {
          "indexed": true,
          "name": "borrower",
          "type": "address"
        },
        {
          "indexed": false,
          "name": "defaultedAmt",
          "type": "uint256"
        },
        {
          "indexed": false,
          "name": "loanAmt",
          "type": "uint256"
        }
      ],
      "name": "Defaulted",
      "type": "event",
      "signature": "0x21382a74b434572c04970aea2623b00513ab62f964d9f8bca396d9e28a2c9f32"
    },
    {
      "anonymous": false,
      "inputs": [
        {
          "indexed": true,
          "name": "loanId",
          "type": "bytes32"
        },
        {
          "indexed": true,
          "name": "lender",
          "type": "address"
        },
        {
          "indexed": false,
          "name": "amount",
          "type": "uint256"
        }
      ],
      "name": "Refunded",
      "type": "event",
      "signature": "0xf552ca82e113ac3c539c3d617f29fcd19c172a0c75dad017555c9e109f7fe183"
    },
    {
      "anonymous": false,
      "inputs": [
        {
          "indexed": true,
          "name": "loanId",
          "type": "bytes32"
        }
      ],
      "name": "Cancelled",
      "type": "event",
      "signature": "0xbaa1eb22f2a492ba1a5fea61b8df4d27c6c8b5f3971e63bb58fa14ff72eedb70"
    },
    {
      "anonymous": false,
      "inputs": [
        {
          "indexed": true,
          "name": "loanId",
          "type": "bytes32"
        }
      ],
      "name": "Stopped",
      "type": "event",
      "signature": "0x1d19fd95a8301a83d3e02da59d47316f37bb99675c57158849e48e8b6d5cd1ba"
    },
    {
      "anonymous": false,
      "inputs": [
        {
          "indexed": true,
          "name": "loanId",
          "type": "bytes32"
        }
      ],
      "name": "Resumed",
      "type": "event",
      "signature": "0x0f32c8acd3779bbdc4f25017f9d48e6a5d2a6741de679a4059bf2fff7456213c"
    },
    {
      "anonymous": false,
      "inputs": [
        {
          "indexed": true,
          "name": "loanId",
          "type": "bytes32"
        }
      ],
      "name": "Closed",
      "type": "event",
      "signature": "0x7b6ac8bce3193cb9464e9070476bf8926e449f5f743f8c7578eea15265467d79"
    },
    {
      "anonymous": false,
      "inputs": [
        {
          "indexed": true,
          "name": "previousOwner",
          "type": "address"
        },
        {
          "indexed": true,
          "name": "newOwner",
          "type": "address"
        }
      ],
      "name": "OwnershipTransferred",
      "type": "event",
      "signature": "0x8be0079c531659141344cd1fd0a4f28419497f9722a3daafe3b4186f6b6457e0"
    },
    {
      "constant": false,
      "inputs": [
        {
          "name": "borrower",
          "type": "address"
        },
        {
          "name": "amount",
          "type": "uint256"
        }
      ],
      "name": "request",
      "outputs": [],
      "payable": false,
      "stateMutability": "nonpayable",
      "type": "function",
      "signature": "0xc8c01a55"
    },
    {
      "constant": false,
      "inputs": [],
      "name": "depositFund",
      "outputs": [],
      "payable": true,
      "stateMutability": "payable",
      "type": "function",
      "signature": "0x8d0d8cb6"
    },
    {
      "constant": false,
      "inputs": [],
      "name": "refund",
      "outputs": [],
      "payable": true,
      "stateMutability": "payable",
      "type": "function",
      "signature": "0x590e1ae3"
    },
    {
      "constant": false,
      "inputs": [],
      "name": "withdrawToBorrower",
      "outputs": [],
      "payable": true,
      "stateMutability": "payable",
      "type": "function",
      "signature": "0xd38da171"
    },
    {
      "constant": false,
      "inputs": [],
      "name": "repay",
      "outputs": [],
      "payable": true,
      "stateMutability": "payable",
      "type": "function",
      "signature": "0x402d8883"
    },
    {
      "constant": false,
      "inputs": [],
      "name": "withdrawToLenders",
      "outputs": [],
      "payable": true,
      "stateMutability": "payable",
      "type": "function",
      "signature": "0xff1024f1"
    },
    {
      "constant": false,
      "inputs": [],
      "name": "toDefault",
      "outputs": [],
      "payable": false,
      "stateMutability": "nonpayable",
      "type": "function",
      "signature": "0xfa0b0aaa"
    },
    {
      "constant": false,
      "inputs": [],
      "name": "cancel",
      "outputs": [],
      "payable": false,
      "stateMutability": "nonpayable",
      "type": "function",
      "signature": "0xea8a1af0"
    }
  ],
  "bytecode": "0x608060405242600655336000806101000a81548173ffffffffffffffffffffffffffffffffffffffff021916908373ffffffffffffffffffffffffffffffffffffffff1602179055506000809054906101000a900473ffffffffffffffffffffffffffffffffffffffff1673ffffffffffffffffffffffffffffffffffffffff16600073ffffffffffffffffffffffffffffffffffffffff167f8be0079c531659141344cd1fd0a4f28419497f9722a3daafe3b4186f6b6457e060405160405180910390a36000600960006101000a81548160ff02191690836008811115620000e457fe5b021790555062000143600260009054906101000a900473ffffffffffffffffffffffffffffffffffffffff166200012962000156640100000000026401000000009004565b6200017f6401000000000262003586176401000000009004565b60018190555042600681905550620001c2565b60008060009054906101000a900473ffffffffffffffffffffffffffffffffffffffff16905090565b600080428373ffffffffffffffffffffffffffffffffffffffff168573ffffffffffffffffffffffffffffffffffffffff16030190508060010291505092915050565b6135f580620001d26000396000f3fe608060405260043610610149576000357c0100000000000000000000000000000000000000000000000000000000900463ffffffff168063046f7da21461014e57806307da68f51461016557806307e547981461017c57806310919b4f146101a7578063200d2ed214610222578063370158ea1461025b578063402d88831461031d578063590e1ae314610327578063715018a614610331578063751d1156146103485780637df1f1b9146103ee57806389946311146104455780638d0d8cb6146104d55780638da5cb5b146104df5780638f32d59b146105365780639d585f7f14610565578063af640d0f14610590578063b69ef8a8146105bb578063c8c01a55146105e6578063d2227acf14610641578063d38da1711461066c578063ea8a1af014610676578063f2fde38b1461068d578063fa0b0aaa146106de578063ff1024f1146106f5575b600080fd5b34801561015a57600080fd5b506101636106ff565b005b34801561017157600080fd5b5061017a6107c7565b005b34801561018857600080fd5b5061019161088f565b6040518082815260200191505060405180910390f35b3480156101b357600080fd5b506101e0600480360360208110156101ca57600080fd5b8101908080359060200190929190505050610899565b604051808273ffffffffffffffffffffffffffffffffffffffff1673ffffffffffffffffffffffffffffffffffffffff16815260200191505060405180910390f35b34801561022e57600080fd5b506102376108d6565b6040518082600881111561024757fe5b60ff16815260200191505060405180910390f35b34801561026757600080fd5b506102706108ed565b6040518089815260200188600881111561028657fe5b60ff1681526020018781526020018681526020018581526020018473ffffffffffffffffffffffffffffffffffffffff1673ffffffffffffffffffffffffffffffffffffffff1681526020018373ffffffffffffffffffffffffffffffffffffffff1673ffffffffffffffffffffffffffffffffffffffff1681526020018281526020019850505050505050505060405180910390f35b610325610953565b005b61032f61095d565b005b34801561033d57600080fd5b50610346610967565b005b34801561035457600080fd5b506103976004803603602081101561036b57600080fd5b81019080803573ffffffffffffffffffffffffffffffffffffffff169060200190929190505050610aa2565b604051808573ffffffffffffffffffffffffffffffffffffffff1673ffffffffffffffffffffffffffffffffffffffff16815260200184815260200183815260200182815260200194505050505060405180910390f35b3480156103fa57600080fd5b50610403610bed565b604051808273ffffffffffffffffffffffffffffffffffffffff1673ffffffffffffffffffffffffffffffffffffffff16815260200191505060405180910390f35b34801561045157600080fd5b5061047e6004803603602081101561046857600080fd5b8101908080359060200190929190505050610c17565b604051808573ffffffffffffffffffffffffffffffffffffffff1673ffffffffffffffffffffffffffffffffffffffff16815260200184815260200183815260200182815260200194505050505060405180910390f35b6104dd610c3d565b005b3480156104eb57600080fd5b506104f4610c47565b604051808273ffffffffffffffffffffffffffffffffffffffff1673ffffffffffffffffffffffffffffffffffffffff16815260200191505060405180910390f35b34801561054257600080fd5b5061054b610c70565b604051808215151515815260200191505060405180910390f35b34801561057157600080fd5b5061057a610cc7565b6040518082815260200191505060405180910390f35b34801561059c57600080fd5b506105a5610cd1565b6040518082815260200191505060405180910390f35b3480156105c757600080fd5b506105d0610cdb565b6040518082815260200191505060405180910390f35b3480156105f257600080fd5b5061063f6004803603604081101561060957600080fd5b81019080803573ffffffffffffffffffffffffffffffffffffffff16906020019092919080359060200190929190505050610cfa565b005b34801561064d57600080fd5b50610656610d08565b6040518082815260200191505060405180910390f35b610674610d12565b005b34801561068257600080fd5b5061068b610dc6565b005b34801561069957600080fd5b506106dc600480360360208110156106b057600080fd5b81019080803573ffffffffffffffffffffffffffffffffffffffff169060200190929190505050610dd0565b005b3480156106ea57600080fd5b506106f3610e58565b005b6106fd610f0c565b005b610707610c70565b151561077b576040517f08c379a00000000000000000000000000000000000000000000000000000000081526004018080602001828103825260198152602001807f417574686f72697a656420666f72206f776e6572206f6e6c790000000000000081525060200191505060405180910390fd5b6000600960016101000a81548160ff0219169083151502179055506001547f0f32c8acd3779bbdc4f25017f9d48e6a5d2a6741de679a4059bf2fff7456213c60405160405180910390a2565b6107cf610c70565b1515610843576040517f08c379a00000000000000000000000000000000000000000000000000000000081526004018080602001828103825260198152602001807f417574686f72697a656420666f72206f776e6572206f6e6c790000000000000081525060200191505060405180910390fd5b6001600960016101000a81548160ff0219169083151502179055506001547f1d19fd95a8301a83d3e02da59d47316f37bb99675c57158849e48e8b6d5cd1ba60405160405180910390a2565b6000600454905090565b6000600b600083815260200190815260200160002060009054906101000a900473ffffffffffffffffffffffffffffffffffffffff169050919050565b6000600960009054906101000a900460ff16905090565b600080600080600080600080610901610cd1565b975061090b6108d6565b9650610915610cdb565b955061091f610cc7565b945061092961088f565b9350610933610bed565b925061093d610c47565b9150610947610d08565b90509091929394959697565b61095b61105d565b565b6109656113ad565b565b61096f610c70565b15156109e3576040517f08c379a00000000000000000000000000000000000000000000000000000000081526004018080602001828103825260198152602001807f417574686f72697a656420666f72206f776e6572206f6e6c790000000000000081525060200191505060405180910390fd5b600073ffffffffffffffffffffffffffffffffffffffff166000809054906101000a900473ffffffffffffffffffffffffffffffffffffffff1673ffffffffffffffffffffffffffffffffffffffff167f8be0079c531659141344cd1fd0a4f28419497f9722a3daafe3b4186f6b6457e060405160405180910390a360008060006101000a81548173ffffffffffffffffffffffffffffffffffffffff021916908373ffffffffffffffffffffffffffffffffffffffff160217905550565b600080600080600073ffffffffffffffffffffffffffffffffffffffff168573ffffffffffffffffffffffffffffffffffffffff161415610afc576000806000808393508292508191508090509350935093509350610be6565b610b04613547565b600a60008773ffffffffffffffffffffffffffffffffffffffff1673ffffffffffffffffffffffffffffffffffffffff168152602001908152602001600020608060405190810160405290816000820160009054906101000a900473ffffffffffffffffffffffffffffffffffffffff1673ffffffffffffffffffffffffffffffffffffffff1673ffffffffffffffffffffffffffffffffffffffff1681526020016001820154815260200160028201548152602001600382015481525050905080600001518160200151826040015183606001518393509450945094509450505b9193509193565b6000600260009054906101000a900473ffffffffffffffffffffffffffffffffffffffff16905090565b600080600080610c2e610c2986610899565b610aa2565b93509350935093509193509193565b610c456119bb565b565b60008060009054906101000a900473ffffffffffffffffffffffffffffffffffffffff16905090565b60008060009054906101000a900473ffffffffffffffffffffffffffffffffffffffff1673ffffffffffffffffffffffffffffffffffffffff163373ffffffffffffffffffffffffffffffffffffffff1614905090565b6000600354905090565b6000600154905090565b60003073ffffffffffffffffffffffffffffffffffffffff1631905090565b610d04828261215a565b5050565b6000600554905090565b610d226201518060075401612500565b1515610dbc576040517f08c379a000000000000000000000000000000000000000000000000000000000815260040180806020018281038252602b8152602001807f417574686f72697a6564206f6e6c79206166746572203120646179206f66206681526020017f756c6c792066756e64656400000000000000000000000000000000000000000081525060400191505060405180910390fd5b610dc461250d565b565b610dce612876565b565b610dd8610c70565b1515610e4c576040517f08c379a00000000000000000000000000000000000000000000000000000000081526004018080602001828103825260198152602001807f417574686f72697a656420666f72206f776e6572206f6e6c790000000000000081525060200191505060405180910390fd5b610e5581612b91565b50565b610e686206978060065401612500565b1515610f02576040517f08c379a000000000000000000000000000000000000000000000000000000000815260040180806020018281038252602d8152602001807f417574686f72697a6564206f6e6c7920616674657220636f6e7472616374206381526020017f726561746564203520646179730000000000000000000000000000000000000081525060400191505060405180910390fd5b610f0a612c8b565b565b60046008811115610f1957fe5b600960009054906101000a900460ff166008811115610f3457fe5b141515610fa9576040517f08c379a000000000000000000000000000000000000000000000000000000000815260040180806020018281038252601a8152602001807f5374617475732073686f756c6420626520696e2052657061696400000000000081525060200191505060405180910390fd5b610fb96202a30060085401612500565b1515611053576040517f08c379a00000000000000000000000000000000000000000000000000000000081526004018080602001828103825260248152602001807f417574686f72697a6564206f6e6c79206166746572203220646179206f66207281526020017f657061790000000000000000000000000000000000000000000000000000000081525060400191505060405180910390fd5b61105b612fcd565b565b6003600881111561106a57fe5b600960009054906101000a900460ff16600881111561108557fe5b1415156110fa576040517f08c379a00000000000000000000000000000000000000000000000000000000081526004018080602001828103825260198152602001807f5265717569726564205374617475733a2057697468647261770000000000000081525060200191505060405180910390fd5b60011515600960019054906101000a900460ff161515141515156111d2576040517f08c379a00000000000000000000000000000000000000000000000000000000081526004018080602001828103825260548152602001807f546865207374617465206f662074686520636f6e74726163742069732073746f81526020017f7070656420627920746865206f776e65722c206e6f206f7065726174696f6e7381526020017f20616c6c6f7720617420746869732074696d652e00000000000000000000000081525060600191505060405180910390fd5b600260009054906101000a900473ffffffffffffffffffffffffffffffffffffffff1673ffffffffffffffffffffffffffffffffffffffff163373ffffffffffffffffffffffffffffffffffffffff16141515611297576040517f08c379a000000000000000000000000000000000000000000000000000000000815260040180806020018281038252601d8152602001807f417574686f72697a656420666f7220626f72726f776572206f6e6c792e00000081525060200191505060405180910390fd5b60045434141515611336576040517f08c379a000000000000000000000000000000000000000000000000000000000815260040180806020018281038252602b8152602001807f52657061696420616d6f756e74206e6f74207468652073616d6520617320616d81526020017f6f756e74206f776e65642e00000000000000000000000000000000000000000081525060400191505060405180910390fd5b346004600082825403925050819055506004600960006101000a81548160ff0219169083600881111561136557fe5b0217905550426008819055506001547f7386151a988d74496e6fc96f665998a762fa92fc6693880496a4d6785b2fdd23346040518082815260200191505060405180910390a2565b600160088111156113ba57fe5b600960009054906101000a900460ff1660088111156113d557fe5b14806114065750600260088111156113e957fe5b600960009054906101000a900460ff16600881111561140457fe5b145b15156114a0576040517f08c379a00000000000000000000000000000000000000000000000000000000081526004018080602001828103825260228152602001807f5265717569726564205374617475733a2046756e64696e67206f722046756e6481526020017f656400000000000000000000000000000000000000000000000000000000000081525060400191505060405180910390fd5b60011515600960019054906101000a900460ff16151514151515611578576040517f08c379a00000000000000000000000000000000000000000000000000000000081526004018080602001828103825260548152602001807f546865207374617465206f662074686520636f6e74726163742069732073746f81526020017f7070656420627920746865206f776e65722c206e6f206f7065726174696f6e7381526020017f20616c6c6f7720617420746869732074696d652e00000000000000000000000081525060600191505060405180910390fd5b611580610c70565b15156115f4576040517f08c379a00000000000000000000000000000000000000000000000000000000081526004018080602001828103825260198152602001807f417574686f72697a656420666f72206f776e6572206f6e6c790000000000000081525060200191505060405180910390fd5b6115fc610cdb565b60045414151561169a576040517f08c379a000000000000000000000000000000000000000000000000000000000815260040180806020018281038252602c8152602001807f42616c616e6365206973206e6f7420656e6f75676820746f20726566756e642081526020017f616c6c206c656e646572732e000000000000000000000000000000000000000081525060400191505060405180910390fd5b60008090505b600554811015611994576116b2613547565b600a6000600b600085815260200190815260200160002060009054906101000a900473ffffffffffffffffffffffffffffffffffffffff1673ffffffffffffffffffffffffffffffffffffffff1673ffffffffffffffffffffffffffffffffffffffff168152602001908152602001600020608060405190810160405290816000820160009054906101000a900473ffffffffffffffffffffffffffffffffffffffff1673ffffffffffffffffffffffffffffffffffffffff1673ffffffffffffffffffffffffffffffffffffffff16815260200160018201548152602001600282015481526020016003820154815250509050600073ffffffffffffffffffffffffffffffffffffffff16816000015173ffffffffffffffffffffffffffffffffffffffff16141515611986576000816020015190508082606001818152505081600a6000600b600087815260200190815260200160002060009054906101000a900473ffffffffffffffffffffffffffffffffffffffff1673ffffffffffffffffffffffffffffffffffffffff1673ffffffffffffffffffffffffffffffffffffffff16815260200190815260200160002060008201518160000160006101000a81548173ffffffffffffffffffffffffffffffffffffffff021916908373ffffffffffffffffffffffffffffffffffffffff16021790555060208201518160010155604082015181600201556060820151816003015590505060008260000151905081600460008282540392505081905550826000015173ffffffffffffffffffffffffffffffffffffffff166108fc839081150290604051600060405180830381858888f19350505050158015611931573d6000803e3d6000fd5b508073ffffffffffffffffffffffffffffffffffffffff166001547ff552ca82e113ac3c539c3d617f29fcd19c172a0c75dad017555c9e109f7fe183846040518082815260200191505060405180910390a350505b5080806001019150506116a0565b506006600960006101000a81548160ff021916908360088111156119b457fe5b0217905550565b600160088111156119c857fe5b600960009054906101000a900460ff1660088111156119e357fe5b141515611a58576040517f08c379a00000000000000000000000000000000000000000000000000000000081526004018080602001828103825260188152602001807f5265717569726564205374617475733a2046756e64696e67000000000000000081525060200191505060405180910390fd5b60011515600960019054906101000a900460ff16151514151515611b30576040517f08c379a00000000000000000000000000000000000000000000000000000000081526004018080602001828103825260548152602001807f546865207374617465206f662074686520636f6e74726163742069732073746f81526020017f7070656420627920746865206f776e65722c206e6f206f7065726174696f6e7381526020017f20616c6c6f7720617420746869732074696d652e00000000000000000000000081525060600191505060405180910390fd5b6003543411151515611bd0576040517f08c379a000000000000000000000000000000000000000000000000000000000815260040180806020018281038252602c8152602001807f4c656e64696e6720616d6f756e74206973206d6f72652074686520616d6f756e81526020017f74207265717565737465642e000000000000000000000000000000000000000081525060400191505060405180910390fd5b600454600354033411151515611c74576040517f08c379a00000000000000000000000000000000000000000000000000000000081526004018080602001828103825260328152602001807f4c656e64696e6720616d6f756e74206973206d6f7265207468616e2072656d6181526020017f696e696e672066756e64206e65656465642e000000000000000000000000000081525060400191505060405180910390fd5b600073ffffffffffffffffffffffffffffffffffffffff16600a60003373ffffffffffffffffffffffffffffffffffffffff1673ffffffffffffffffffffffffffffffffffffffff16815260200190815260200160002060000160009054906101000a900473ffffffffffffffffffffffffffffffffffffffff1673ffffffffffffffffffffffffffffffffffffffff16141515611d7a576040517f08c379a00000000000000000000000000000000000000000000000000000000081526004018080602001828103825260108152602001807f4578697374696e67206c656e6465722e0000000000000000000000000000000081525060200191505060405180910390fd5b611d82610c47565b73ffffffffffffffffffffffffffffffffffffffff163373ffffffffffffffffffffffffffffffffffffffff1614151515611e4b576040517f08c379a000000000000000000000000000000000000000000000000000000000815260040180806020018281038252602d8152602001807f4f776e65722063616e27742062652061206c656e64657220696e20746865207381526020017f616d6520636f6e74726163742e0000000000000000000000000000000000000081525060400191505060405180910390fd5b600260009054906101000a900473ffffffffffffffffffffffffffffffffffffffff1673ffffffffffffffffffffffffffffffffffffffff163373ffffffffffffffffffffffffffffffffffffffff1614151515611f37576040517f08c379a00000000000000000000000000000000000000000000000000000000081526004018080602001828103825260308152602001807f426f72726f7765722063616e27742062652061206c656e64657220696e20746881526020017f652073616d6520636f6e74726163742e0000000000000000000000000000000081525060400191505060405180910390fd5b6080604051908101604052803373ffffffffffffffffffffffffffffffffffffffff168152602001348152602001600081526020016000815250600a60003373ffffffffffffffffffffffffffffffffffffffff1673ffffffffffffffffffffffffffffffffffffffff16815260200190815260200160002060008201518160000160006101000a81548173ffffffffffffffffffffffffffffffffffffffff021916908373ffffffffffffffffffffffffffffffffffffffff16021790555060208201518160010155604082015181600201556060820151816003015590505033600b6000600554815260200190815260200160002060006101000a81548173ffffffffffffffffffffffffffffffffffffffff021916908373ffffffffffffffffffffffffffffffffffffffff160217905550600560008154809291906001019190505550346004600082825401925050819055503373ffffffffffffffffffffffffffffffffffffffff166001547f567ee2fe3df8d4438b27a9f7d5fe1b33f94acd2c68f6a23dde69751fde18e12a346040518082815260200191505060405180910390a36003546120ea610cdb565b1415612158576002600960006101000a81548160ff0219169083600881111561210f57fe5b0217905550426007819055506001547f9f4592c3bd42bd33860ee93dc92d07f06e3f4fb6e19a9ca214982fe7c1bdb0376003546040518082815260200191505060405180910390a25b565b612162610c70565b15156121d6576040517f08c379a00000000000000000000000000000000000000000000000000000000081526004018080602001828103825260198152602001807f417574686f72697a656420666f72206f776e6572206f6e6c790000000000000081525060200191505060405180910390fd5b600073ffffffffffffffffffffffffffffffffffffffff168273ffffffffffffffffffffffffffffffffffffffff161415151561227b576040517f08c379a00000000000000000000000000000000000000000000000000000000081526004018080602001828103825260108152602001807f4164647265737320697320656d7074790000000000000000000000000000000081525060200191505060405180910390fd5b612283610c47565b73ffffffffffffffffffffffffffffffffffffffff168273ffffffffffffffffffffffffffffffffffffffff161415151561234c576040517f08c379a00000000000000000000000000000000000000000000000000000000081526004018080602001828103825260298152602001807f4f776e65722063616e277420626520626f72726f77657220617420746865207381526020017f616d652074696d652e000000000000000000000000000000000000000000000081525060400191505060405180910390fd5b6000811115156123ea576040517f08c379a00000000000000000000000000000000000000000000000000000000081526004018080602001828103825260228152602001807f30206973206e6f7420612076616c696420626f72726f77696e6720616d6f756e81526020017f742e00000000000000000000000000000000000000000000000000000000000081525060400191505060405180910390fd5b81600260006101000a81548173ffffffffffffffffffffffffffffffffffffffff021916908373ffffffffffffffffffffffffffffffffffffffff160217905550806003819055506001600960006101000a81548160ff0219169083600881111561245157fe5b0217905550600260009054906101000a900473ffffffffffffffffffffffffffffffffffffffff1673ffffffffffffffffffffffffffffffffffffffff166001547f432cddca824392e0d67c28ed9c59e94789e1ecd6e170847a54ba420468b097f36124bb610c47565b604051808273ffffffffffffffffffffffffffffffffffffffff1673ffffffffffffffffffffffffffffffffffffffff16815260200191505060405180910390a35050565b6000814210159050919050565b6002600881111561251a57fe5b600960009054906101000a900460ff16600881111561253557fe5b1415156125aa576040517f08c379a00000000000000000000000000000000000000000000000000000000081526004018080602001828103825260178152602001807f5265717569726564205374617475733a2046756e64656400000000000000000081525060200191505060405180910390fd5b60011515600960019054906101000a900460ff16151514151515612682576040517f08c379a00000000000000000000000000000000000000000000000000000000081526004018080602001828103825260548152602001807f546865207374617465206f662074686520636f6e74726163742069732073746f81526020017f7070656420627920746865206f776e65722c206e6f206f7065726174696f6e7381526020017f20616c6c6f7720617420746869732074696d652e00000000000000000000000081525060600191505060405180910390fd5b600260009054906101000a900473ffffffffffffffffffffffffffffffffffffffff1673ffffffffffffffffffffffffffffffffffffffff163373ffffffffffffffffffffffffffffffffffffffff16141515612747576040517f08c379a000000000000000000000000000000000000000000000000000000000815260040180806020018281038252601d8152602001807f417574686f72697a656420666f7220626f72726f776572206f6e6c792e00000081525060200191505060405180910390fd5b6000612751610cdb565b1115156127c6576040517f08c379a000000000000000000000000000000000000000000000000000000000815260040180806020018281038252601b8152602001807f5468652062616c616e636520697320302063757272656e746c792e000000000081525060200191505060405180910390fd5b6003600960006101000a81548160ff021916908360088111156127e557fe5b02179055503373ffffffffffffffffffffffffffffffffffffffff166108fc61280c610cdb565b9081150290604051600060405180830381858888f19350505050158015612837573d6000803e3d6000fd5b506001547fa3b20715ecbfc0df1fd9080734769d9acd91e86de1cbd3625392170cdcfd6f146004546040518082815260200191505060405180910390a2565b60011515600960019054906101000a900460ff1615151415151561294e576040517f08c379a00000000000000000000000000000000000000000000000000000000081526004018080602001828103825260548152602001807f546865207374617465206f662074686520636f6e74726163742069732073746f81526020017f7070656420627920746865206f776e65722c206e6f206f7065726174696f6e7381526020017f20616c6c6f7720617420746869732074696d652e00000000000000000000000081525060600191505060405180910390fd5b600260009054906101000a900473ffffffffffffffffffffffffffffffffffffffff1673ffffffffffffffffffffffffffffffffffffffff163373ffffffffffffffffffffffffffffffffffffffff1614806129dc57506129ad610c47565b73ffffffffffffffffffffffffffffffffffffffff163373ffffffffffffffffffffffffffffffffffffffff16145b1515612a76576040517f08c379a00000000000000000000000000000000000000000000000000000000081526004018080602001828103825260268152602001807f417574686f72697a656420666f7220626f72726f776572206f72206f776e657281526020017f206f6e6c792e000000000000000000000000000000000000000000000000000081525060400191505060405180910390fd5b6000600454141515612b3c576040517f08c379a00000000000000000000000000000000000000000000000000000000081526004018080602001828103825260448152602001807f43616e27742063616e63656c6c656420636f6e7472616374207768656e20667581526020017f6e642069732070726f76696465642e2055736520726566756e642066756e637481526020017f696f6e2e0000000000000000000000000000000000000000000000000000000081525060600191505060405180910390fd5b6007600960006101000a81548160ff02191690836008811115612b5b57fe5b02179055506001547fbaa1eb22f2a492ba1a5fea61b8df4d27c6c8b5f3971e63bb58fa14ff72eedb7060405160405180910390a2565b600073ffffffffffffffffffffffffffffffffffffffff168173ffffffffffffffffffffffffffffffffffffffff1614151515612bcd57600080fd5b8073ffffffffffffffffffffffffffffffffffffffff166000809054906101000a900473ffffffffffffffffffffffffffffffffffffffff1673ffffffffffffffffffffffffffffffffffffffff167f8be0079c531659141344cd1fd0a4f28419497f9722a3daafe3b4186f6b6457e060405160405180910390a3806000806101000a81548173ffffffffffffffffffffffffffffffffffffffff021916908373ffffffffffffffffffffffffffffffffffffffff16021790555050565b60036008811115612c9857fe5b600960009054906101000a900460ff166008811115612cb357fe5b141515612d28576040517f08c379a00000000000000000000000000000000000000000000000000000000081526004018080602001828103825260198152602001807f5265717569726564205374617475733a2057697468647261770000000000000081525060200191505060405180910390fd5b60011515600960019054906101000a900460ff16151514151515612e00576040517f08c379a00000000000000000000000000000000000000000000000000000000081526004018080602001828103825260548152602001807f546865207374617465206f662074686520636f6e74726163742069732073746f81526020017f7070656420627920746865206f776e65722c206e6f206f7065726174696f6e7381526020017f20616c6c6f7720617420746869732074696d652e00000000000000000000000081525060600191505060405180910390fd5b600260009054906101000a900473ffffffffffffffffffffffffffffffffffffffff1673ffffffffffffffffffffffffffffffffffffffff163373ffffffffffffffffffffffffffffffffffffffff161480612e8e5750612e5f610c47565b73ffffffffffffffffffffffffffffffffffffffff163373ffffffffffffffffffffffffffffffffffffffff16145b1515612f28576040517f08c379a00000000000000000000000000000000000000000000000000000000081526004018080602001828103825260268152602001807f417574686f72697a656420666f7220626f72726f776572206f72206f776e657281526020017f206f6e6c792e000000000000000000000000000000000000000000000000000081525060400191505060405180910390fd5b6005600960006101000a81548160ff02191690836008811115612f4757fe5b0217905550600260009054906101000a900473ffffffffffffffffffffffffffffffffffffffff1673ffffffffffffffffffffffffffffffffffffffff166001547f21382a74b434572c04970aea2623b00513ab62f964d9f8bca396d9e28a2c9f32600454600354604051808381526020018281526020019250505060405180910390a3565b60046008811115612fda57fe5b600960009054906101000a900460ff166008811115612ff557fe5b14151561306a576040517f08c379a00000000000000000000000000000000000000000000000000000000081526004018080602001828103825260178152602001807f5265717569726564205374617475733a2052657061696400000000000000000081525060200191505060405180910390fd5b60011515600960019054906101000a900460ff16151514151515613142576040517f08c379a00000000000000000000000000000000000000000000000000000000081526004018080602001828103825260548152602001807f546865207374617465206f662074686520636f6e74726163742069732073746f81526020017f7070656420627920746865206f776e65722c206e6f206f7065726174696f6e7381526020017f20616c6c6f7720617420746869732074696d652e00000000000000000000000081525060600191505060405180910390fd5b61314a610c70565b15156131be576040517f08c379a00000000000000000000000000000000000000000000000000000000081526004018080602001828103825260198152602001807f417574686f72697a656420666f72206f776e6572206f6e6c790000000000000081525060200191505060405180910390fd5b6131c6610cdb565b600354141515613264576040517f08c379a000000000000000000000000000000000000000000000000000000000815260040180806020018281038252602c8152602001807f42616c616e6365206973206e6f7420656e6f75676820746f20726566756e642081526020017f616c6c206c656e646572732e000000000000000000000000000000000000000081525060400191505060405180910390fd5b60008090505b6005548110156134f15761327c613547565b600a6000600b600085815260200190815260200160002060009054906101000a900473ffffffffffffffffffffffffffffffffffffffff1673ffffffffffffffffffffffffffffffffffffffff1673ffffffffffffffffffffffffffffffffffffffff168152602001908152602001600020608060405190810160405290816000820160009054906101000a900473ffffffffffffffffffffffffffffffffffffffff1673ffffffffffffffffffffffffffffffffffffffff1673ffffffffffffffffffffffffffffffffffffffff16815260200160018201548152602001600282015481526020016003820154815250509050600073ffffffffffffffffffffffffffffffffffffffff16816000015173ffffffffffffffffffffffffffffffffffffffff161415156134e357806020015181604001818152505080600a6000600b600086815260200190815260200160002060009054906101000a900473ffffffffffffffffffffffffffffffffffffffff1673ffffffffffffffffffffffffffffffffffffffff1673ffffffffffffffffffffffffffffffffffffffff16815260200190815260200160002060008201518160000160006101000a81548173ffffffffffffffffffffffffffffffffffffffff021916908373ffffffffffffffffffffffffffffffffffffffff160217905550602082015181600101556040820151816002015560608201518160030155905050806000015173ffffffffffffffffffffffffffffffffffffffff166108fc82604001519081150290604051600060405180830381858888f193505050501580156134e1573d6000803e3d6000fd5b505b50808060010191505061326a565b506008600960006101000a81548160ff0219169083600881111561351157fe5b02179055506001547f7b6ac8bce3193cb9464e9070476bf8926e449f5f743f8c7578eea15265467d7960405160405180910390a2565b608060405190810160405280600073ffffffffffffffffffffffffffffffffffffffff1681526020016000815260200160008152602001600081525090565b600080428373ffffffffffffffffffffffffffffffffffffffff168573ffffffffffffffffffffffffffffffffffffffff1603019050806001029150509291505056fea165627a7a72305820b1a23ee6283c92de10c4efbb9d3442a3f5db35e7c1ccd54874318f3ba25e1aab0029",
  "source": "pragma solidity ^0.5.0;\n\nimport \"./SimpleLoan.sol\";\n\n/**\n * @title Time Secured Simple Loan\n * @notice Time secured loan inherit simple loan but with time protected modifier on the withdrawToBorrower\n * and withdrawToLenders so the fund can't transfer out from the contract account until the waiting period reached.\n * @dev This contract is created out of demonstrate one of the security best practices of writing solidty contract \n * and also a different test cases is written specifically for it.\n */\ncontract TimeSecuredLoan is SimpleLoan {\n\n    // Modifiers\n    modifier onlyFullyFundedAfterOneDay { \n        require(onlyAfter(_fullyFundedTime + 1 days), \"Authorized only after 1 day of fully funded\"); \n        _; \n    \n    }\n    \n    modifier onlyRepayAfterTwoDay { \n        require(_status == Status.Repaid, \"Status should be in Repaid\");\n        require(onlyAfter(_repaidTime + 2 days), \"Authorized only after 2 day of repay\"); \n        _; \n    }\n\n    modifier onlyCreatedAfterFiveDay { \n        require(onlyAfter(_creationTime + 5 days), \"Authorized only after contract created 5 days\"); \n        _; \n    }\n\n    /**\n     * @notice Setup the loan request with the borrower address and the loan amount\n     * @dev only the owner (or the loan broker in this case) can setup the borrowing info.\n     */\n    function request(address borrower, uint amount) public {\n        super.request(borrower, amount);\n    }\n\n    /**\n     * @notice Deposit fund to the contract balance\n     * @dev Anyone other than the owner and borrower in this case.\n     */\n    function depositFund() public payable {\n        super.depositFund();\n    }\n\n    /**\n     * @notice Return the deposit fund to lender\n     * @dev It can only refund when the borrower hasn't withdrawn the fund. Only owner (contract brodker) can\n     * execute the refund.\n     */\n    function refund() public payable {\n        super.refund();\n    }\n    \n    /**\n     * @notice Withdrawing the fund deposited by the lender to borrower account.\n     * @dev The withdraw only allow after 1 day of the loan is fully funded.\n     */\n    function withdrawToBorrower() public payable onlyFullyFundedAfterOneDay {\n        super.withdrawToBorrower();\n    }\n\n    /**\n     * @notice borrower repay the loan amount to the contract address\n     */\n    function repay() public payable {\n        super.repay();\n    }\n\n    /**\n     * @notice Widthdraw fund from contract balance back to lender according to the loan amount\n     * @dev The withdraw only allow after 2 day of the loan is fully repaid.\n     */\n    function withdrawToLenders() public payable onlyRepayAfterTwoDay {\n        super.withdrawToLenders();\n    }\n    \n    /**\n     * @notice default the loan\n     */\n    function toDefault() public onlyCreatedAfterFiveDay {\n        super.toDefault();\n    }\n    \n    /**\n     * @notice to cancel the loan\n     */\n    function cancel() public {\n        super.cancel();\n    }\n\n    /// Internal functions\n\n    /**\n     * @notice validate current time is greater or equal to given time.\n     * @param _time  time in unix epock\n     * @return true if now is greater or equal to given time\n     */\n    function onlyAfter(uint _time) internal view returns(bool) { \n        return now >= _time; \n    }\n}",
  "sourcePath": "/Users/furydev/ethereumdev/simple-loan/contracts/TimeSecuredLoan.sol",
  "compiler": {
    "name": "solc",
    "version": "0.5.0+commit.1d4f565a.Emscripten.clang"
  },
  "schemaVersion": "3.0.1",
  "updatedAt": "2019-01-26T18:48:38.118Z",
  "devdoc": {
    "details": "This contract is created out of demonstrate one of the security best practices of writing solidty contract  and also a different test cases is written specifically for it.",
    "methods": {
      "balance()": {
        "details": "getter for contract's balance",
        "return": "current balance of the contract"
      },
      "borrower()": {
        "details": "getter for borrower",
        "return": "borrower address."
      },
      "depositFund()": {
        "details": "Anyone other than the owner and borrower in this case."
      },
      "id()": {
        "details": "getter function for loan id",
        "return": "loan ID in string"
      },
      "info()": {
        "details": "a web helper function get loan properties in one function  instead of calling multiple getter function where the code is now readable.",
        "return": "tuple with loan property values."
      },
      "isOwner()": {
        "return": "true if `msg.sender` is the owner of the contract."
      },
      "lenderAddressAt(uint256)": {
        "details": "helper function to get lender address by index",
        "params": {
          "idx": "position index"
        },
        "return": "lender address"
      },
      "lenderAt(uint256)": {
        "details": "helper function to get lender from the mapping",
        "params": {
          "idx": "the index position in lender address mapping"
        },
        "return": "a lender info in tuples"
      },
      "lenderBy(address)": {
        "details": "helper function to get lender by its address",
        "params": {
          "addr": "lender address"
        },
        "return": "lender's address, lending amount, and repaid amount in tuples."
      },
      "lenderCount()": {
        "details": "getter for lender counter",
        "return": "number of lenders for this contract"
      },
      "loanAmount()": {
        "details": "getter for loan amount",
        "return": "the loan amount requested by the borrower"
      },
      "ownedAmount()": {
        "details": "getter for owned amount",
        "return": "the amount withdraw by the borrower"
      },
      "owner()": {
        "return": "the address of the owner."
      },
      "refund()": {
        "details": "It can only refund when the borrower hasn't withdrawn the fund. Only owner (contract brodker) can execute the refund."
      },
      "renounceOwnership()": {
        "details": "Allows the current owner to relinquish control of the contract."
      },
      "request(address,uint256)": {
        "details": "only the owner (or the loan broker in this case) can setup the borrowing info."
      },
      "resume()": {
        "details": "only only can execute this function"
      },
      "status()": {
        "details": "getter for status",
        "return": "current status according to the loan lifecycle"
      },
      "stop()": {
        "details": "only owner can execute this function."
      },
      "transferOwnership(address)": {
        "details": "Allows the current owner to transfer control of the contract to a newOwner.",
        "params": {
          "newOwner": "The address to transfer ownership to."
        }
      },
      "withdrawToBorrower()": {
        "details": "The withdraw only allow after 1 day of the loan is fully funded."
      },
      "withdrawToLenders()": {
        "details": "The withdraw only allow after 2 day of the loan is fully repaid."
      }
    },
    "title": "Time Secured Simple Loan"
  },
  "userdoc": {
    "methods": {
      "cancel()": {
        "notice": "to cancel the loan"
      },
      "depositFund()": {
        "notice": "Deposit fund to the contract balance"
      },
      "refund()": {
        "notice": "Return the deposit fund to lender"
      },
      "renounceOwnership()": {
        "notice": "Renouncing to ownership will leave the contract without an owner. It will not be possible to call the functions with the `onlyOwner` modifier anymore."
      },
      "repay()": {
        "notice": "borrower repay the loan amount to the contract address"
      },
      "request(address,uint256)": {
        "notice": "Setup the loan request with the borrower address and the loan amount"
      },
      "resume()": {
        "notice": "Take the contract out of suspend state."
      },
      "stop()": {
        "notice": "Put the contract in suspend state in the even or ermegency"
      },
      "toDefault()": {
        "notice": "default the loan"
      },
      "withdrawToBorrower()": {
        "notice": "Withdrawing the fund deposited by the lender to borrower account."
      },
      "withdrawToLenders()": {
        "notice": "Widthdraw fund from contract balance back to lender according to the loan amount"
      }
    },
    "notice": "Time secured loan inherit simple loan but with time protected modifier on the withdrawToBorrower and withdrawToLenders so the fund can't transfer out from the contract account until the waiting period reached."
  }
}